{
  "contractName": "EventManager",
  "abi": [
    {
      "inputs": [
        {
          "internalType": "address",
          "name": "UserAccountAddress",
          "type": "address"
        }
      ],
      "stateMutability": "nonpayable",
      "type": "constructor"
    },
    {
      "anonymous": false,
      "inputs": [
        {
          "indexed": true,
          "internalType": "uint256",
          "name": "eventId",
          "type": "uint256"
        },
        {
          "indexed": false,
          "internalType": "string",
          "name": "name",
          "type": "string"
        },
        {
          "indexed": false,
          "internalType": "string",
          "name": "description",
          "type": "string"
        },
        {
          "indexed": false,
          "internalType": "uint256",
          "name": "date",
          "type": "uint256"
        },
        {
          "indexed": false,
          "internalType": "string",
          "name": "location",
          "type": "string"
        },
        {
          "indexed": false,
          "internalType": "address",
          "name": "organizer",
          "type": "address"
        }
      ],
      "name": "NewEvent",
      "type": "event"
    },
    {
      "inputs": [
        {
          "internalType": "string",
          "name": "name",
          "type": "string"
        },
        {
          "internalType": "string",
          "name": "description",
          "type": "string"
        },
        {
          "internalType": "uint256",
          "name": "date",
          "type": "uint256"
        },
        {
          "internalType": "string",
          "name": "location",
          "type": "string"
        }
      ],
      "name": "createEvent",
      "outputs": [],
      "stateMutability": "nonpayable",
      "type": "function"
    },
    {
      "inputs": [
        {
          "internalType": "uint256",
          "name": "eventId",
          "type": "uint256"
        },
        {
          "internalType": "string",
          "name": "name",
          "type": "string"
        },
        {
          "internalType": "string",
          "name": "description",
          "type": "string"
        },
        {
          "internalType": "uint256",
          "name": "date",
          "type": "uint256"
        },
        {
          "internalType": "string",
          "name": "location",
          "type": "string"
        }
      ],
      "name": "editEvent",
      "outputs": [],
      "stateMutability": "nonpayable",
      "type": "function"
    },
    {
      "inputs": [
        {
          "internalType": "uint256",
          "name": "eventId",
          "type": "uint256"
        }
      ],
      "name": "deleteEvent",
      "outputs": [],
      "stateMutability": "nonpayable",
      "type": "function"
    },
    {
      "inputs": [
        {
          "internalType": "address",
          "name": "organizer",
          "type": "address"
        }
      ],
      "name": "getOrganizerEventDetails",
      "outputs": [
        {
          "components": [
            {
              "internalType": "uint256",
              "name": "id",
              "type": "uint256"
            },
            {
              "internalType": "string",
              "name": "name",
              "type": "string"
            },
            {
              "internalType": "string",
              "name": "description",
              "type": "string"
            },
            {
              "internalType": "uint256",
              "name": "date",
              "type": "uint256"
            },
            {
              "internalType": "string",
              "name": "location",
              "type": "string"
            },
            {
              "internalType": "address",
              "name": "organizer",
              "type": "address"
            }
          ],
          "internalType": "struct EventManager.EventDetails[]",
          "name": "",
          "type": "tuple[]"
        }
      ],
      "stateMutability": "view",
      "type": "function",
      "constant": true
    },
    {
      "inputs": [],
      "name": "totalEvents",
      "outputs": [
        {
          "internalType": "uint256",
          "name": "",
          "type": "uint256"
        }
      ],
      "stateMutability": "view",
      "type": "function",
      "constant": true
    },
    {
      "inputs": [
        {
          "internalType": "uint256",
          "name": "eventId",
          "type": "uint256"
        }
      ],
      "name": "getEvent",
      "outputs": [
        {
          "components": [
            {
              "internalType": "uint256",
              "name": "id",
              "type": "uint256"
            },
            {
              "internalType": "string",
              "name": "name",
              "type": "string"
            },
            {
              "internalType": "string",
              "name": "description",
              "type": "string"
            },
            {
              "internalType": "uint256",
              "name": "date",
              "type": "uint256"
            },
            {
              "internalType": "string",
              "name": "location",
              "type": "string"
            },
            {
              "internalType": "address",
              "name": "organizer",
              "type": "address"
            }
          ],
          "internalType": "struct EventManager.EventDetails",
          "name": "",
          "type": "tuple"
        }
      ],
      "stateMutability": "view",
      "type": "function",
      "constant": true
    },
    {
      "inputs": [
        {
          "internalType": "address",
          "name": "organizer",
          "type": "address"
        }
      ],
      "name": "getOrganizerEvents",
      "outputs": [
        {
          "internalType": "uint256[]",
          "name": "",
          "type": "uint256[]"
        }
      ],
      "stateMutability": "view",
      "type": "function",
      "constant": true
    },
    {
      "inputs": [],
      "name": "getAllEventIds",
      "outputs": [
        {
          "internalType": "uint256[]",
          "name": "",
          "type": "uint256[]"
        }
      ],
      "stateMutability": "view",
      "type": "function",
      "constant": true
    }
  ],
  "bytecode": "0x60806040523480156200001157600080fd5b5060405162001fb738038062001fb78339818101604052810190620000379190620000e8565b806000806101000a81548173ffffffffffffffffffffffffffffffffffffffff021916908373ffffffffffffffffffffffffffffffffffffffff160217905550506200011a565b600080fd5b600073ffffffffffffffffffffffffffffffffffffffff82169050919050565b6000620000b08262000083565b9050919050565b620000c281620000a3565b8114620000ce57600080fd5b50565b600081519050620000e281620000b7565b92915050565b6000602082840312156200010157620001006200007e565b5b60006200011184828501620000d1565b91505092915050565b611e8d806200012a6000396000f3fe608060405234801561001057600080fd5b50600436106100885760003560e01c8063f8749a581161005b578063f8749a5814610129578063f8d6586814610145578063ff3a0fb614610161578063ff9f59701461017d57610088565b8063682e54cd1461008d5780636d1884e0146100ab578063999b5301146100db578063ba8706861461010b575b600080fd5b6100956101ad565b6040516100a2919061115b565b60405180910390f35b6100c560048036038101906100c091906111bd565b610255565b6040516100d29190611352565b60405180910390f35b6100f560048036038101906100f091906113a0565b6104a2565b6040516101029190611526565b60405180910390f35b61011361082f565b6040516101209190611557565b60405180910390f35b610143600480360381019061013e91906111bd565b610839565b005b61015f600480360381019061015a91906116a7565b610b42565b005b61017b60048036038101906101769190611776565b610d0b565b005b610197600480360381019061019291906113a0565b610f53565b6040516101a4919061115b565b60405180910390f35b6060600060015467ffffffffffffffff8111156101cd576101cc61157c565b5b6040519080825280602002602001820160405280156101fb5781602001602082028036833780820191505090505b5090506000600190505b600154811161024d57808260018361021d9190611860565b8151811061022e5761022d611894565b5b6020026020010181815250508080610245906118c3565b915050610205565b508091505090565b61025d610fea565b600260008381526020019081526020016000206040518060c0016040529081600082015481526020016001820180546102959061193a565b80601f01602080910402602001604051908101604052809291908181526020018280546102c19061193a565b801561030e5780601f106102e35761010080835404028352916020019161030e565b820191906000526020600020905b8154815290600101906020018083116102f157829003601f168201915b505050505081526020016002820180546103279061193a565b80601f01602080910402602001604051908101604052809291908181526020018280546103539061193a565b80156103a05780601f10610375576101008083540402835291602001916103a0565b820191906000526020600020905b81548152906001019060200180831161038357829003601f168201915b50505050508152602001600382015481526020016004820180546103c39061193a565b80601f01602080910402602001604051908101604052809291908181526020018280546103ef9061193a565b801561043c5780601f106104115761010080835404028352916020019161043c565b820191906000526020600020905b81548152906001019060200180831161041f57829003601f168201915b505050505081526020016005820160009054906101000a900473ffffffffffffffffffffffffffffffffffffffff1673ffffffffffffffffffffffffffffffffffffffff1673ffffffffffffffffffffffffffffffffffffffff16815250509050919050565b60606000600360008473ffffffffffffffffffffffffffffffffffffffff1673ffffffffffffffffffffffffffffffffffffffff16815260200190815260200160002080548060200260200160405190810160405280929190818152602001828054801561052f57602002820191906000526020600020905b81548152602001906001019080831161051b575b505050505090506000815167ffffffffffffffff8111156105535761055261157c565b5b60405190808252806020026020018201604052801561058c57816020015b610579610fea565b8152602001906001900390816105715790505b50905060005b825181101561082457600260008483815181106105b2576105b1611894565b5b602002602001015181526020019081526020016000206040518060c0016040529081600082015481526020016001820180546105ed9061193a565b80601f01602080910402602001604051908101604052809291908181526020018280546106199061193a565b80156106665780601f1061063b57610100808354040283529160200191610666565b820191906000526020600020905b81548152906001019060200180831161064957829003601f168201915b5050505050815260200160028201805461067f9061193a565b80601f01602080910402602001604051908101604052809291908181526020018280546106ab9061193a565b80156106f85780601f106106cd576101008083540402835291602001916106f8565b820191906000526020600020905b8154815290600101906020018083116106db57829003601f168201915b505050505081526020016003820154815260200160048201805461071b9061193a565b80601f01602080910402602001604051908101604052809291908181526020018280546107479061193a565b80156107945780601f1061076957610100808354040283529160200191610794565b820191906000526020600020905b81548152906001019060200180831161077757829003601f168201915b505050505081526020016005820160009054906101000a900473ffffffffffffffffffffffffffffffffffffffff1673ffffffffffffffffffffffffffffffffffffffff1673ffffffffffffffffffffffffffffffffffffffff168152505082828151811061080657610805611894565b5b6020026020010181905250808061081c906118c3565b915050610592565b508092505050919050565b6000600154905090565b60008054906101000a900473ffffffffffffffffffffffffffffffffffffffff1673ffffffffffffffffffffffffffffffffffffffff166391a03fa5336040518263ffffffff1660e01b8152600401610892919061197a565b602060405180830381865afa1580156108af573d6000803e3d6000fd5b505050506040513d601f19601f820116820180604052508101906108d391906119cd565b610912576040517f08c379a000000000000000000000000000000000000000000000000000000000815260040161090990611a57565b60405180910390fd5b60006002600083815260200190815260200160002090503373ffffffffffffffffffffffffffffffffffffffff168160050160009054906101000a900473ffffffffffffffffffffffffffffffffffffffff1673ffffffffffffffffffffffffffffffffffffffff16146109bb576040517f08c379a00000000000000000000000000000000000000000000000000000000081526004016109b290611ae9565b60405180910390fd5b600260008381526020019081526020016000206000808201600090556001820160006109e79190611036565b6002820160006109f79190611036565b6003820160009055600482016000610a0f9190611036565b6005820160006101000a81549073ffffffffffffffffffffffffffffffffffffffff021916905550506000600360003373ffffffffffffffffffffffffffffffffffffffff1673ffffffffffffffffffffffffffffffffffffffff168152602001908152602001600020905060005b8180549050811015610b3c5783828281548110610a9e57610a9d611894565b5b906000526020600020015403610b29578160018380549050610ac09190611860565b81548110610ad157610ad0611894565b5b9060005260206000200154828281548110610aef57610aee611894565b5b906000526020600020018190555081805480610b0e57610b0d611b09565b5b60019003818190600052602060002001600090559055610b3c565b8080610b34906118c3565b915050610a7e565b50505050565b60008054906101000a900473ffffffffffffffffffffffffffffffffffffffff1673ffffffffffffffffffffffffffffffffffffffff166391a03fa5336040518263ffffffff1660e01b8152600401610b9b919061197a565b602060405180830381865afa158015610bb8573d6000803e3d6000fd5b505050506040513d601f19601f82011682018060405250810190610bdc91906119cd565b610c1b576040517f08c379a0000000000000000000000000000000000000000000000000000000008152600401610c1290611a57565b60405180910390fd5b60006002600087815260200190815260200160002090503373ffffffffffffffffffffffffffffffffffffffff168160050160009054906101000a900473ffffffffffffffffffffffffffffffffffffffff1673ffffffffffffffffffffffffffffffffffffffff1614610cc4576040517f08c379a0000000000000000000000000000000000000000000000000000000008152600401610cbb90611ae9565b60405180910390fd5b84816001019081610cd59190611ce4565b5083816002019081610ce79190611ce4565b5082816003018190555081816004019081610d029190611ce4565b50505050505050565b60008054906101000a900473ffffffffffffffffffffffffffffffffffffffff1673ffffffffffffffffffffffffffffffffffffffff166391a03fa5336040518263ffffffff1660e01b8152600401610d64919061197a565b602060405180830381865afa158015610d81573d6000803e3d6000fd5b505050506040513d601f19601f82011682018060405250810190610da591906119cd565b610de4576040517f08c379a0000000000000000000000000000000000000000000000000000000008152600401610ddb90611a57565b60405180910390fd5b60016000815480929190610df7906118c3565b919050555060006002600060015481526020019081526020016000209050600154816000018190555084816001019081610e319190611ce4565b5083816002019081610e439190611ce4565b5082816003018190555081816004019081610e5e9190611ce4565b50338160050160006101000a81548173ffffffffffffffffffffffffffffffffffffffff021916908373ffffffffffffffffffffffffffffffffffffffff160217905550600360003373ffffffffffffffffffffffffffffffffffffffff1673ffffffffffffffffffffffffffffffffffffffff16815260200190815260200160002060015490806001815401808255809150506001900390600052602060002001600090919091909150556001547f7093029a9cec4d1e0f8d321b8b3664e44b097d7a975757296b331ad4ff6b42168686868633604051610f44959493929190611def565b60405180910390a25050505050565b6060600360008373ffffffffffffffffffffffffffffffffffffffff1673ffffffffffffffffffffffffffffffffffffffff168152602001908152602001600020805480602002602001604051908101604052809291908181526020018280548015610fde57602002820191906000526020600020905b815481526020019060010190808311610fca575b50505050509050919050565b6040518060c001604052806000815260200160608152602001606081526020016000815260200160608152602001600073ffffffffffffffffffffffffffffffffffffffff1681525090565b5080546110429061193a565b6000825580601f106110545750611073565b601f0160209004906000526020600020908101906110729190611076565b5b50565b5b8082111561108f576000816000905550600101611077565b5090565b600081519050919050565b600082825260208201905092915050565b6000819050602082019050919050565b6000819050919050565b6110d2816110bf565b82525050565b60006110e483836110c9565b60208301905092915050565b6000602082019050919050565b600061110882611093565b611112818561109e565b935061111d836110af565b8060005b8381101561114e57815161113588826110d8565b9750611140836110f0565b925050600181019050611121565b5085935050505092915050565b6000602082019050818103600083015261117581846110fd565b905092915050565b6000604051905090565b600080fd5b600080fd5b61119a816110bf565b81146111a557600080fd5b50565b6000813590506111b781611191565b92915050565b6000602082840312156111d3576111d2611187565b5b60006111e1848285016111a8565b91505092915050565b600081519050919050565b600082825260208201905092915050565b60005b83811015611224578082015181840152602081019050611209565b60008484015250505050565b6000601f19601f8301169050919050565b600061124c826111ea565b61125681856111f5565b9350611266818560208601611206565b61126f81611230565b840191505092915050565b600073ffffffffffffffffffffffffffffffffffffffff82169050919050565b60006112a58261127a565b9050919050565b6112b58161129a565b82525050565b600060c0830160008301516112d360008601826110c9565b50602083015184820360208601526112eb8282611241565b915050604083015184820360408601526113058282611241565b915050606083015161131a60608601826110c9565b50608083015184820360808601526113328282611241565b91505060a083015161134760a08601826112ac565b508091505092915050565b6000602082019050818103600083015261136c81846112bb565b905092915050565b61137d8161129a565b811461138857600080fd5b50565b60008135905061139a81611374565b92915050565b6000602082840312156113b6576113b5611187565b5b60006113c48482850161138b565b91505092915050565b600081519050919050565b600082825260208201905092915050565b6000819050602082019050919050565b600060c08301600083015161141160008601826110c9565b50602083015184820360208601526114298282611241565b915050604083015184820360408601526114438282611241565b915050606083015161145860608601826110c9565b50608083015184820360808601526114708282611241565b91505060a083015161148560a08601826112ac565b508091505092915050565b600061149c83836113f9565b905092915050565b6000602082019050919050565b60006114bc826113cd565b6114c681856113d8565b9350836020820285016114d8856113e9565b8060005b8581101561151457848403895281516114f58582611490565b9450611500836114a4565b925060208a019950506001810190506114dc565b50829750879550505050505092915050565b6000602082019050818103600083015261154081846114b1565b905092915050565b611551816110bf565b82525050565b600060208201905061156c6000830184611548565b92915050565b600080fd5b600080fd5b7f4e487b7100000000000000000000000000000000000000000000000000000000600052604160045260246000fd5b6115b482611230565b810181811067ffffffffffffffff821117156115d3576115d261157c565b5b80604052505050565b60006115e661117d565b90506115f282826115ab565b919050565b600067ffffffffffffffff8211156116125761161161157c565b5b61161b82611230565b9050602081019050919050565b82818337600083830152505050565b600061164a611645846115f7565b6115dc565b90508281526020810184848401111561166657611665611577565b5b611671848285611628565b509392505050565b600082601f83011261168e5761168d611572565b5b813561169e848260208601611637565b91505092915050565b600080600080600060a086880312156116c3576116c2611187565b5b60006116d1888289016111a8565b955050602086013567ffffffffffffffff8111156116f2576116f161118c565b5b6116fe88828901611679565b945050604086013567ffffffffffffffff81111561171f5761171e61118c565b5b61172b88828901611679565b935050606061173c888289016111a8565b925050608086013567ffffffffffffffff81111561175d5761175c61118c565b5b61176988828901611679565b9150509295509295909350565b600080600080608085870312156117905761178f611187565b5b600085013567ffffffffffffffff8111156117ae576117ad61118c565b5b6117ba87828801611679565b945050602085013567ffffffffffffffff8111156117db576117da61118c565b5b6117e787828801611679565b93505060406117f8878288016111a8565b925050606085013567ffffffffffffffff8111156118195761181861118c565b5b61182587828801611679565b91505092959194509250565b7f4e487b7100000000000000000000000000000000000000000000000000000000600052601160045260246000fd5b600061186b826110bf565b9150611876836110bf565b925082820390508181111561188e5761188d611831565b5b92915050565b7f4e487b7100000000000000000000000000000000000000000000000000000000600052603260045260246000fd5b60006118ce826110bf565b91507fffffffffffffffffffffffffffffffffffffffffffffffffffffffffffffffff8203611900576118ff611831565b5b600182019050919050565b7f4e487b7100000000000000000000000000000000000000000000000000000000600052602260045260246000fd5b6000600282049050600182168061195257607f821691505b6020821081036119655761196461190b565b5b50919050565b6119748161129a565b82525050565b600060208201905061198f600083018461196b565b92915050565b60008115159050919050565b6119aa81611995565b81146119b557600080fd5b50565b6000815190506119c7816119a1565b92915050565b6000602082840312156119e3576119e2611187565b5b60006119f1848285016119b8565b91505092915050565b600082825260208201905092915050565b7f43616c6c6572206973206e6f7420616e206576656e74206f7267616e697a6572600082015250565b6000611a416020836119fa565b9150611a4c82611a0b565b602082019050919050565b60006020820190508181036000830152611a7081611a34565b9050919050565b7f43616c6c6572206973206e6f7420746865206576656e74206f7267616e697a6560008201527f7200000000000000000000000000000000000000000000000000000000000000602082015250565b6000611ad36021836119fa565b9150611ade82611a77565b604082019050919050565b60006020820190508181036000830152611b0281611ac6565b9050919050565b7f4e487b7100000000000000000000000000000000000000000000000000000000600052603160045260246000fd5b60008190508160005260206000209050919050565b60006020601f8301049050919050565b600082821b905092915050565b600060088302611b9a7fffffffffffffffffffffffffffffffffffffffffffffffffffffffffffffffff82611b5d565b611ba48683611b5d565b95508019841693508086168417925050509392505050565b6000819050919050565b6000611be1611bdc611bd7846110bf565b611bbc565b6110bf565b9050919050565b6000819050919050565b611bfb83611bc6565b611c0f611c0782611be8565b848454611b6a565b825550505050565b600090565b611c24611c17565b611c2f818484611bf2565b505050565b5b81811015611c5357611c48600082611c1c565b600181019050611c35565b5050565b601f821115611c9857611c6981611b38565b611c7284611b4d565b81016020851015611c81578190505b611c95611c8d85611b4d565b830182611c34565b50505b505050565b600082821c905092915050565b6000611cbb60001984600802611c9d565b1980831691505092915050565b6000611cd48383611caa565b9150826002028217905092915050565b611ced826111ea565b67ffffffffffffffff811115611d0657611d0561157c565b5b611d10825461193a565b611d1b828285611c57565b600060209050601f831160018114611d4e5760008415611d3c578287015190505b611d468582611cc8565b865550611dae565b601f198416611d5c86611b38565b60005b82811015611d8457848901518255600182019150602085019450602081019050611d5f565b86831015611da15784890151611d9d601f891682611caa565b8355505b6001600288020188555050505b505050505050565b6000611dc1826111ea565b611dcb81856119fa565b9350611ddb818560208601611206565b611de481611230565b840191505092915050565b600060a0820190508181036000830152611e098188611db6565b90508181036020830152611e1d8187611db6565b9050611e2c6040830186611548565b8181036060830152611e3e8185611db6565b9050611e4d608083018461196b565b969550505050505056fea264697066735822122062f598636ad0e2c2a18c3a5ca37e9d53104cd19bf4656bb82aa9e7af143e71d664736f6c63430008130033",
  "immutableReferences": {},
  "source": "// SPDX-License-Identifier: UNLICENSED\npragma solidity ^0.8.19;\n\nimport \"./UserAccount.sol\";\n\n// EventManager smart contract that manages event creation, editing, and deleting\ncontract EventManager {\n    // Reference to the UserAccount smart contract\n    UserAccount private _userAccount;\n\n    // Counter for event IDs\n    uint256 private _eventIdCounter;\n\n    // EventDetails: store event information\n    struct EventDetails {\n        uint256 id;\n        string name;\n        string description;\n        uint256 date;\n        string location;\n        address organizer;\n    }\n\n    // Mapping to store event details by event ID\n    mapping(uint256 => EventDetails) private _events;\n    // Mapping to store event IDs by event organizer address\n    mapping(address => uint256[]) private _organizerEvents;\n\n    // Event emitted when a new event is created\n    event NewEvent(\n        uint256 indexed eventId,\n        string name,\n        string description,\n        uint256 date,\n        string location,\n        address organizer\n    );\n\n    // Constructor to set the address of the UserAccount contract\n    constructor(address UserAccountAddress) {\n        _userAccount = UserAccount(UserAccountAddress);\n    }\n\n    // Modifier to check if the caller is an event organizer\n    modifier onlyEventOrganizer() {\n        require(\n            _userAccount.isEventOrganizer(msg.sender),\n            \"Caller is not an event organizer\"\n        );\n        _;\n    }\n\n    // Function to create a new event\n    function createEvent(\n        string memory name,\n        string memory description,\n        uint256 date,\n        string memory location\n    ) public onlyEventOrganizer {\n        // Increment the event ID counter\n        _eventIdCounter++;\n\n        // Create a new EventDetails struct and store it in the mapping\n        EventDetails storage newEvent = _events[_eventIdCounter];\n        newEvent.id = _eventIdCounter;\n        newEvent.name = name;\n        newEvent.description = description;\n        newEvent.date = date;\n        newEvent.location = location;\n        newEvent.organizer = msg.sender;\n\n        // Add the event ID to the organizer's list of events\n        _organizerEvents[msg.sender].push(_eventIdCounter);\n\n        // Emit the NewEvent event\n        emit NewEvent(\n            _eventIdCounter,\n            name,\n            description,\n            date,\n            location,\n            msg.sender\n        );\n    }\n\n    // Function to edit an existing event\n    function editEvent(\n        uint256 eventId,\n        string memory name,\n        string memory description,\n        uint256 date,\n        string memory location\n    ) public onlyEventOrganizer {\n        // Check if the event exists and the caller is the organizer\n        EventDetails storage eventToUpdate = _events[eventId];\n        require(\n            eventToUpdate.organizer == msg.sender,\n            \"Caller is not the event organizer\"\n        );\n\n        // Update the event details\n        eventToUpdate.name = name;\n        eventToUpdate.description = description;\n        eventToUpdate.date = date;\n        eventToUpdate.location = location;\n    }\n\n    // Function to delete an existing event\n    function deleteEvent(uint256 eventId) public onlyEventOrganizer {\n        // Check if the event exists and the caller is the organizer\n        EventDetails storage eventToDelete = _events[eventId];\n        require(\n            eventToDelete.organizer == msg.sender,\n            \"Caller is not the event organizer\"\n        );\n\n        // Delete the event from the mapping\n        delete _events[eventId];\n\n        // Remove the event ID from the organizer's list of events\n        uint256[] storage organizerEventIds = _organizerEvents[msg.sender];\n                for (uint256 i = 0; i < organizerEventIds.length; i++) {\n            if (organizerEventIds[i] == eventId) {\n                organizerEventIds[i] = organizerEventIds[\n                    organizerEventIds.length - 1\n                ];\n                organizerEventIds.pop();\n                break;\n            }\n        }\n    }\n\n// Get the list of event details for a specific organizer\nfunction getOrganizerEventDetails(address organizer) public view returns (EventDetails[] memory) {\n    uint256[] memory eventIds = _organizerEvents[organizer];\n    EventDetails[] memory events = new EventDetails[](eventIds.length);\n    \n    for (uint256 i = 0; i < eventIds.length; i++) {\n        events[i] = _events[eventIds[i]];\n    }\n    \n    return events;\n}\n\nfunction totalEvents() public view returns (uint256) {\n    return _eventIdCounter;\n}\n\n    // Function to get an event's details by event ID\n    function getEvent(\n        uint256 eventId\n    ) public view returns (EventDetails memory) {\n        return _events[eventId];\n    }\n\n    // Function to get an event organizer's list of event IDs\n    function getOrganizerEvents(\n        address organizer\n    ) public view returns (uint256[] memory) {\n        return _organizerEvents[organizer];\n    }\n\n    // Function to get the list of all event IDs\n    function getAllEventIds() public view returns (uint256[] memory) {\n        uint256[] memory eventIds = new uint256[](_eventIdCounter);\n        for (uint256 i = 1; i <= _eventIdCounter; i++) {\n            eventIds[i - 1] = i;\n        }\n        return eventIds;\n    }\n\n\n\n}\n",
  "sourcePath": "/Volumes/STUDY/MDX/Undergraduate Individual Project/NFT-Tickets-SmartContracts/contracts/EventManager.sol",
  "compiler": {
    "name": "solc",
    "version": "0.8.19+commit.7dd6d404.Emscripten.clang"
  },
  "schemaVersion": "3.4.13",
  "updatedAt": "2023-04-28T17:33:56.241Z",
  "networkType": "ethereum",
  "devdoc": {
    "kind": "dev",
    "methods": {},
    "version": 1
  },
  "userdoc": {
    "kind": "user",
    "methods": {},
    "version": 1
  }
}