{
  "contractName": "TicketNFT",
  "abi": [
    {
      "inputs": [
        {
          "internalType": "address",
          "name": "userAccountAddress",
          "type": "address"
        }
      ],
      "stateMutability": "nonpayable",
      "type": "constructor"
    },
    {
      "anonymous": false,
      "inputs": [
        {
          "indexed": true,
          "internalType": "address",
          "name": "owner",
          "type": "address"
        },
        {
          "indexed": true,
          "internalType": "address",
          "name": "approved",
          "type": "address"
        },
        {
          "indexed": true,
          "internalType": "uint256",
          "name": "tokenId",
          "type": "uint256"
        }
      ],
      "name": "Approval",
      "type": "event"
    },
    {
      "anonymous": false,
      "inputs": [
        {
          "indexed": true,
          "internalType": "address",
          "name": "owner",
          "type": "address"
        },
        {
          "indexed": true,
          "internalType": "address",
          "name": "operator",
          "type": "address"
        },
        {
          "indexed": false,
          "internalType": "bool",
          "name": "approved",
          "type": "bool"
        }
      ],
      "name": "ApprovalForAll",
      "type": "event"
    },
    {
      "anonymous": false,
      "inputs": [
        {
          "indexed": true,
          "internalType": "uint256",
          "name": "ticketId",
          "type": "uint256"
        },
        {
          "indexed": true,
          "internalType": "uint256",
          "name": "eventId",
          "type": "uint256"
        },
        {
          "indexed": true,
          "internalType": "address",
          "name": "owner",
          "type": "address"
        },
        {
          "indexed": false,
          "internalType": "uint256",
          "name": "price",
          "type": "uint256"
        },
        {
          "indexed": false,
          "internalType": "uint256",
          "name": "quantity",
          "type": "uint256"
        }
      ],
      "name": "TicketMinted",
      "type": "event"
    },
    {
      "anonymous": false,
      "inputs": [
        {
          "indexed": true,
          "internalType": "address",
          "name": "from",
          "type": "address"
        },
        {
          "indexed": true,
          "internalType": "address",
          "name": "to",
          "type": "address"
        },
        {
          "indexed": true,
          "internalType": "uint256",
          "name": "tokenId",
          "type": "uint256"
        }
      ],
      "name": "Transfer",
      "type": "event"
    },
    {
      "inputs": [
        {
          "internalType": "address",
          "name": "to",
          "type": "address"
        },
        {
          "internalType": "uint256",
          "name": "tokenId",
          "type": "uint256"
        }
      ],
      "name": "approve",
      "outputs": [],
      "stateMutability": "nonpayable",
      "type": "function"
    },
    {
      "inputs": [
        {
          "internalType": "address",
          "name": "owner",
          "type": "address"
        }
      ],
      "name": "balanceOf",
      "outputs": [
        {
          "internalType": "uint256",
          "name": "",
          "type": "uint256"
        }
      ],
      "stateMutability": "view",
      "type": "function",
      "constant": true
    },
    {
      "inputs": [
        {
          "internalType": "uint256",
          "name": "tokenId",
          "type": "uint256"
        }
      ],
      "name": "getApproved",
      "outputs": [
        {
          "internalType": "address",
          "name": "",
          "type": "address"
        }
      ],
      "stateMutability": "view",
      "type": "function",
      "constant": true
    },
    {
      "inputs": [
        {
          "internalType": "address",
          "name": "owner",
          "type": "address"
        },
        {
          "internalType": "address",
          "name": "operator",
          "type": "address"
        }
      ],
      "name": "isApprovedForAll",
      "outputs": [
        {
          "internalType": "bool",
          "name": "",
          "type": "bool"
        }
      ],
      "stateMutability": "view",
      "type": "function",
      "constant": true
    },
    {
      "inputs": [],
      "name": "name",
      "outputs": [
        {
          "internalType": "string",
          "name": "",
          "type": "string"
        }
      ],
      "stateMutability": "view",
      "type": "function",
      "constant": true
    },
    {
      "inputs": [
        {
          "internalType": "uint256",
          "name": "tokenId",
          "type": "uint256"
        }
      ],
      "name": "ownerOf",
      "outputs": [
        {
          "internalType": "address",
          "name": "",
          "type": "address"
        }
      ],
      "stateMutability": "view",
      "type": "function",
      "constant": true
    },
    {
      "inputs": [
        {
          "internalType": "address",
          "name": "from",
          "type": "address"
        },
        {
          "internalType": "address",
          "name": "to",
          "type": "address"
        },
        {
          "internalType": "uint256",
          "name": "tokenId",
          "type": "uint256"
        }
      ],
      "name": "safeTransferFrom",
      "outputs": [],
      "stateMutability": "nonpayable",
      "type": "function"
    },
    {
      "inputs": [
        {
          "internalType": "address",
          "name": "from",
          "type": "address"
        },
        {
          "internalType": "address",
          "name": "to",
          "type": "address"
        },
        {
          "internalType": "uint256",
          "name": "tokenId",
          "type": "uint256"
        },
        {
          "internalType": "bytes",
          "name": "data",
          "type": "bytes"
        }
      ],
      "name": "safeTransferFrom",
      "outputs": [],
      "stateMutability": "nonpayable",
      "type": "function"
    },
    {
      "inputs": [
        {
          "internalType": "address",
          "name": "operator",
          "type": "address"
        },
        {
          "internalType": "bool",
          "name": "approved",
          "type": "bool"
        }
      ],
      "name": "setApprovalForAll",
      "outputs": [],
      "stateMutability": "nonpayable",
      "type": "function"
    },
    {
      "inputs": [
        {
          "internalType": "bytes4",
          "name": "interfaceId",
          "type": "bytes4"
        }
      ],
      "name": "supportsInterface",
      "outputs": [
        {
          "internalType": "bool",
          "name": "",
          "type": "bool"
        }
      ],
      "stateMutability": "view",
      "type": "function",
      "constant": true
    },
    {
      "inputs": [],
      "name": "symbol",
      "outputs": [
        {
          "internalType": "string",
          "name": "",
          "type": "string"
        }
      ],
      "stateMutability": "view",
      "type": "function",
      "constant": true
    },
    {
      "inputs": [
        {
          "internalType": "uint256",
          "name": "tokenId",
          "type": "uint256"
        }
      ],
      "name": "tokenURI",
      "outputs": [
        {
          "internalType": "string",
          "name": "",
          "type": "string"
        }
      ],
      "stateMutability": "view",
      "type": "function",
      "constant": true
    },
    {
      "inputs": [
        {
          "internalType": "address",
          "name": "from",
          "type": "address"
        },
        {
          "internalType": "address",
          "name": "to",
          "type": "address"
        },
        {
          "internalType": "uint256",
          "name": "tokenId",
          "type": "uint256"
        }
      ],
      "name": "transferFrom",
      "outputs": [],
      "stateMutability": "nonpayable",
      "type": "function"
    },
    {
      "inputs": [
        {
          "internalType": "uint256",
          "name": "ticketId",
          "type": "uint256"
        }
      ],
      "name": "burnTicket",
      "outputs": [],
      "stateMutability": "nonpayable",
      "type": "function"
    },
    {
      "inputs": [
        {
          "internalType": "uint256",
          "name": "eventId",
          "type": "uint256"
        },
        {
          "internalType": "uint256",
          "name": "price",
          "type": "uint256"
        },
        {
          "internalType": "string",
          "name": "tokenURI",
          "type": "string"
        },
        {
          "internalType": "uint256",
          "name": "quantity",
          "type": "uint256"
        }
      ],
      "name": "mintTicket",
      "outputs": [],
      "stateMutability": "nonpayable",
      "type": "function"
    },
    {
      "inputs": [
        {
          "internalType": "uint256",
          "name": "ticketId",
          "type": "uint256"
        }
      ],
      "name": "purchaseTicket",
      "outputs": [],
      "stateMutability": "payable",
      "type": "function",
      "payable": true
    },
    {
      "inputs": [
        {
          "internalType": "address",
          "name": "organizer",
          "type": "address"
        }
      ],
      "name": "getOrganizerEvents",
      "outputs": [
        {
          "internalType": "uint256[]",
          "name": "",
          "type": "uint256[]"
        }
      ],
      "stateMutability": "view",
      "type": "function",
      "constant": true
    },
    {
      "inputs": [
        {
          "internalType": "uint256",
          "name": "ticketId",
          "type": "uint256"
        }
      ],
      "name": "withdrawFunds",
      "outputs": [],
      "stateMutability": "nonpayable",
      "type": "function"
    },
    {
      "inputs": [
        {
          "internalType": "uint256",
          "name": "ticketId",
          "type": "uint256"
        }
      ],
      "name": "getTicketPrice",
      "outputs": [
        {
          "internalType": "uint256",
          "name": "",
          "type": "uint256"
        }
      ],
      "stateMutability": "view",
      "type": "function",
      "constant": true
    },
    {
      "inputs": [
        {
          "internalType": "uint256",
          "name": "ticketId",
          "type": "uint256"
        }
      ],
      "name": "getTicketEventId",
      "outputs": [
        {
          "internalType": "uint256",
          "name": "",
          "type": "uint256"
        }
      ],
      "stateMutability": "view",
      "type": "function",
      "constant": true
    },
    {
      "inputs": [
        {
          "internalType": "uint256",
          "name": "ticketId",
          "type": "uint256"
        }
      ],
      "name": "getTicketQuantity",
      "outputs": [
        {
          "internalType": "uint256",
          "name": "",
          "type": "uint256"
        }
      ],
      "stateMutability": "view",
      "type": "function",
      "constant": true
    },
    {
      "inputs": [
        {
          "internalType": "uint256",
          "name": "ticketId",
          "type": "uint256"
        }
      ],
      "name": "getTicketsSold",
      "outputs": [
        {
          "internalType": "uint256",
          "name": "",
          "type": "uint256"
        }
      ],
      "stateMutability": "view",
      "type": "function",
      "constant": true
    },
    {
      "inputs": [
        {
          "internalType": "uint256",
          "name": "ticketId",
          "type": "uint256"
        }
      ],
      "name": "getTicketsAvailable",
      "outputs": [
        {
          "internalType": "uint256",
          "name": "",
          "type": "uint256"
        }
      ],
      "stateMutability": "view",
      "type": "function",
      "constant": true
    }
  ],
  "bytecode": "0x60806040523480156200001157600080fd5b50604051620040983803806200409883398181016040528101906200003791906200017b565b6040518060400160405280600981526020017f5469636b65744e465400000000000000000000000000000000000000000000008152506040518060400160405280600481526020017f544e4654000000000000000000000000000000000000000000000000000000008152508160009081620000b4919062000427565b508060019081620000c6919062000427565b50505080600860006101000a81548173ffffffffffffffffffffffffffffffffffffffff021916908373ffffffffffffffffffffffffffffffffffffffff160217905550506200050e565b600080fd5b600073ffffffffffffffffffffffffffffffffffffffff82169050919050565b6000620001438262000116565b9050919050565b620001558162000136565b81146200016157600080fd5b50565b60008151905062000175816200014a565b92915050565b60006020828403121562000194576200019362000111565b5b6000620001a48482850162000164565b91505092915050565b600081519050919050565b7f4e487b7100000000000000000000000000000000000000000000000000000000600052604160045260246000fd5b7f4e487b7100000000000000000000000000000000000000000000000000000000600052602260045260246000fd5b600060028204905060018216806200022f57607f821691505b602082108103620002455762000244620001e7565b5b50919050565b60008190508160005260206000209050919050565b60006020601f8301049050919050565b600082821b905092915050565b600060088302620002af7fffffffffffffffffffffffffffffffffffffffffffffffffffffffffffffffff8262000270565b620002bb868362000270565b95508019841693508086168417925050509392505050565b6000819050919050565b6000819050919050565b60006200030862000302620002fc84620002d3565b620002dd565b620002d3565b9050919050565b6000819050919050565b6200032483620002e7565b6200033c62000333826200030f565b8484546200027d565b825550505050565b600090565b6200035362000344565b6200036081848462000319565b505050565b5b8181101562000388576200037c60008262000349565b60018101905062000366565b5050565b601f821115620003d757620003a1816200024b565b620003ac8462000260565b81016020851015620003bc578190505b620003d4620003cb8562000260565b83018262000365565b50505b505050565b600082821c905092915050565b6000620003fc60001984600802620003dc565b1980831691505092915050565b6000620004178383620003e9565b9150826002028217905092915050565b6200043282620001ad565b67ffffffffffffffff8111156200044e576200044d620001b8565b5b6200045a825462000216565b620004678282856200038c565b600060209050601f8311600181146200049f57600084156200048a578287015190505b62000496858262000409565b86555062000506565b601f198416620004af866200024b565b60005b82811015620004d957848901518255600182019150602085019450602081019050620004b2565b86831015620004f95784890151620004f5601f891682620003e9565b8355505b6001600288020188555050505b505050505050565b613b7a806200051e6000396000f3fe6080604052600436106101405760003560e01c806370a08231116100b6578063b88d4fde1161006f578063b88d4fde146104a2578063b948348c146104cb578063c87b56dd146104e7578063e985e9c514610524578063f06fc96114610561578063ff9f59701461059e57610140565b806370a082311461036e5780637510cfaf146103ab57806378fb29d7146103e857806395d89b4114610425578063a22cb46514610450578063a476b73d1461047957610140565b806323b872dd1161010857806323b872dd1461023c57806342842e0e146102655780635889298f1461028e5780636352211e146102cb5780636a616293146103085780636df0baaf1461033157610140565b806301ffc9a71461014557806306fdde0314610182578063081812fc146101ad578063095ea7b3146101ea578063155dd5ee14610213575b600080fd5b34801561015157600080fd5b5061016c600480360381019061016791906125dc565b6105db565b6040516101799190612624565b60405180910390f35b34801561018e57600080fd5b506101976106bd565b6040516101a491906126cf565b60405180910390f35b3480156101b957600080fd5b506101d460048036038101906101cf9190612727565b61074f565b6040516101e19190612795565b60405180910390f35b3480156101f657600080fd5b50610211600480360381019061020c91906127dc565b610795565b005b34801561021f57600080fd5b5061023a60048036038101906102359190612727565b6108ac565b005b34801561024857600080fd5b50610263600480360381019061025e919061281c565b610a2f565b005b34801561027157600080fd5b5061028c6004803603810190610287919061281c565b610a8f565b005b34801561029a57600080fd5b506102b560048036038101906102b09190612727565b610aaf565b6040516102c2919061287e565b60405180910390f35b3480156102d757600080fd5b506102f260048036038101906102ed9190612727565b610acc565b6040516102ff9190612795565b60405180910390f35b34801561031457600080fd5b5061032f600480360381019061032a91906129ce565b610b52565b005b34801561033d57600080fd5b5061035860048036038101906103539190612727565b610d79565b604051610365919061287e565b60405180910390f35b34801561037a57600080fd5b5061039560048036038101906103909190612a51565b610db4565b6040516103a2919061287e565b60405180910390f35b3480156103b757600080fd5b506103d260048036038101906103cd9190612727565b610e6b565b6040516103df919061287e565b60405180910390f35b3480156103f457600080fd5b5061040f600480360381019061040a9190612727565b610e88565b60405161041c919061287e565b60405180910390f35b34801561043157600080fd5b5061043a610ea5565b60405161044791906126cf565b60405180910390f35b34801561045c57600080fd5b5061047760048036038101906104729190612aaa565b610f37565b005b34801561048557600080fd5b506104a0600480360381019061049b9190612727565b610f4d565b005b3480156104ae57600080fd5b506104c960048036038101906104c49190612b8b565b6110f5565b005b6104e560048036038101906104e09190612727565b611157565b005b3480156104f357600080fd5b5061050e60048036038101906105099190612727565b6112ca565b60405161051b91906126cf565b60405180910390f35b34801561053057600080fd5b5061054b60048036038101906105469190612c0e565b6113dc565b6040516105589190612624565b60405180910390f35b34801561056d57600080fd5b5061058860048036038101906105839190612727565b611470565b604051610595919061287e565b60405180910390f35b3480156105aa57600080fd5b506105c560048036038101906105c09190612a51565b61148d565b6040516105d29190612d0c565b60405180910390f35b60007f80ac58cd000000000000000000000000000000000000000000000000000000007bffffffffffffffffffffffffffffffffffffffffffffffffffffffff1916827bffffffffffffffffffffffffffffffffffffffffffffffffffffffff191614806106a657507f5b5e139f000000000000000000000000000000000000000000000000000000007bffffffffffffffffffffffffffffffffffffffffffffffffffffffff1916827bffffffffffffffffffffffffffffffffffffffffffffffffffffffff1916145b806106b657506106b582611524565b5b9050919050565b6060600080546106cc90612d5d565b80601f01602080910402602001604051908101604052809291908181526020018280546106f890612d5d565b80156107455780601f1061071a57610100808354040283529160200191610745565b820191906000526020600020905b81548152906001019060200180831161072857829003601f168201915b5050505050905090565b600061075a8261158e565b6004600083815260200190815260200160002060009054906101000a900473ffffffffffffffffffffffffffffffffffffffff169050919050565b60006107a082610acc565b90508073ffffffffffffffffffffffffffffffffffffffff168373ffffffffffffffffffffffffffffffffffffffff1603610810576040517f08c379a000000000000000000000000000000000000000000000000000000000815260040161080790612e00565b60405180910390fd5b8073ffffffffffffffffffffffffffffffffffffffff1661082f6115d9565b73ffffffffffffffffffffffffffffffffffffffff16148061085e575061085d816108586115d9565b6113dc565b5b61089d576040517f08c379a000000000000000000000000000000000000000000000000000000000815260040161089490612e92565b60405180910390fd5b6108a783836115e1565b505050565b600860009054906101000a900473ffffffffffffffffffffffffffffffffffffffff1673ffffffffffffffffffffffffffffffffffffffff166391a03fa5336040518263ffffffff1660e01b81526004016109079190612795565b602060405180830381865afa158015610924573d6000803e3d6000fd5b505050506040513d601f19601f820116820180604052508101906109489190612ec7565b610987576040517f08c379a000000000000000000000000000000000000000000000000000000000815260040161097e90612f40565b60405180910390fd5b600061099282610acc565b90506000600a600084815260200190815260200160002054600d6000858152602001908152602001600020546109c89190612f8f565b90508173ffffffffffffffffffffffffffffffffffffffff166108fc829081150290604051600060405180830381858888f19350505050158015610a10573d6000803e3d6000fd5b506000600d600085815260200190815260200160002081905550505050565b610a40610a3a6115d9565b8261169a565b610a7f576040517f08c379a0000000000000000000000000000000000000000000000000000000008152600401610a7690613043565b60405180910390fd5b610a8a83838361172f565b505050565b610aaa838383604051806020016040528060008152506110f5565b505050565b6000600d6000838152602001908152602001600020549050919050565b600080610ad883611a28565b9050600073ffffffffffffffffffffffffffffffffffffffff168173ffffffffffffffffffffffffffffffffffffffff1603610b49576040517f08c379a0000000000000000000000000000000000000000000000000000000008152600401610b40906130af565b60405180910390fd5b80915050919050565b600860009054906101000a900473ffffffffffffffffffffffffffffffffffffffff1673ffffffffffffffffffffffffffffffffffffffff166391a03fa5336040518263ffffffff1660e01b8152600401610bad9190612795565b602060405180830381865afa158015610bca573d6000803e3d6000fd5b505050506040513d601f19601f82011682018060405250810190610bee9190612ec7565b610c2d576040517f08c379a0000000000000000000000000000000000000000000000000000000008152600401610c2490612f40565b60405180910390fd5b610c376009611a65565b6000610c436009611a7b565b9050610c4f3382611a89565b610c598184611ca6565b600760003373ffffffffffffffffffffffffffffffffffffffff1673ffffffffffffffffffffffffffffffffffffffff16815260200190815260200160002085908060018154018082558091505060019003906000526020600020016000909190919091505583600a60008381526020019081526020016000208190555084600b60008381526020019081526020016000208190555081600c6000838152602001908152602001600020819055506000600d6000838152602001908152602001600020819055503373ffffffffffffffffffffffffffffffffffffffff1685827fed62a49acafd18b53efaca7f328da805d1d7e1d64fcc169b00556f05b163ed7c8786604051610d6a9291906130cf565b60405180910390a45050505050565b6000600d600083815260200190815260200160002054600c600084815260200190815260200160002054610dad91906130f8565b9050919050565b60008073ffffffffffffffffffffffffffffffffffffffff168273ffffffffffffffffffffffffffffffffffffffff1603610e24576040517f08c379a0000000000000000000000000000000000000000000000000000000008152600401610e1b9061319e565b60405180910390fd5b600360008373ffffffffffffffffffffffffffffffffffffffff1673ffffffffffffffffffffffffffffffffffffffff168152602001908152602001600020549050919050565b6000600b6000838152602001908152602001600020549050919050565b6000600c6000838152602001908152602001600020549050919050565b606060018054610eb490612d5d565b80601f0160208091040260200160405190810160405280929190818152602001828054610ee090612d5d565b8015610f2d5780601f10610f0257610100808354040283529160200191610f2d565b820191906000526020600020905b815481529060010190602001808311610f1057829003601f168201915b5050505050905090565b610f49610f426115d9565b8383611d13565b5050565b600860009054906101000a900473ffffffffffffffffffffffffffffffffffffffff1673ffffffffffffffffffffffffffffffffffffffff166391a03fa5336040518263ffffffff1660e01b8152600401610fa89190612795565b602060405180830381865afa158015610fc5573d6000803e3d6000fd5b505050506040513d601f19601f82011682018060405250810190610fe99190612ec7565b611028576040517f08c379a000000000000000000000000000000000000000000000000000000000815260040161101f90612f40565b60405180910390fd5b3373ffffffffffffffffffffffffffffffffffffffff1661104882610acc565b73ffffffffffffffffffffffffffffffffffffffff161461109e576040517f08c379a00000000000000000000000000000000000000000000000000000000081526004016110959061320a565b60405180910390fd5b60006110a982610d79565b116110e9576040517f08c379a00000000000000000000000000000000000000000000000000000000081526004016110e090613276565b60405180910390fd5b6110f281611e7f565b50565b6111066111006115d9565b8361169a565b611145576040517f08c379a000000000000000000000000000000000000000000000000000000000815260040161113c90613043565b60405180910390fd5b61115184848484611ed2565b50505050565b6000600a6000838152602001908152602001600020549050600061117a83610acc565b90506000600d600085815260200190815260200160002054600c6000868152602001908152602001600020546111b091906130f8565b9050600081116111f5576040517f08c379a00000000000000000000000000000000000000000000000000000000081526004016111ec90613308565b60405180910390fd5b823414611237576040517f08c379a000000000000000000000000000000000000000000000000000000000815260040161122e90613374565b60405180910390fd5b8173ffffffffffffffffffffffffffffffffffffffff166108fc349081150290604051600060405180830381858888f1935050505015801561127d573d6000803e3d6000fd5b506001600d600086815260200190815260200160002060008282546112a29190613394565b925050819055506112c482338660405180602001604052806000815250611ed2565b50505050565b60606112d58261158e565b60006006600084815260200190815260200160002080546112f590612d5d565b80601f016020809104026020016040519081016040528092919081815260200182805461132190612d5d565b801561136e5780601f106113435761010080835404028352916020019161136e565b820191906000526020600020905b81548152906001019060200180831161135157829003601f168201915b50505050509050600061137f611f2e565b905060008151036113945781925050506113d7565b6000825111156113c95780826040516020016113b1929190613404565b604051602081830303815290604052925050506113d7565b6113d284611f45565b925050505b919050565b6000600560008473ffffffffffffffffffffffffffffffffffffffff1673ffffffffffffffffffffffffffffffffffffffff16815260200190815260200160002060008373ffffffffffffffffffffffffffffffffffffffff1673ffffffffffffffffffffffffffffffffffffffff16815260200190815260200160002060009054906101000a900460ff16905092915050565b6000600a6000838152602001908152602001600020549050919050565b6060600760008373ffffffffffffffffffffffffffffffffffffffff1673ffffffffffffffffffffffffffffffffffffffff16815260200190815260200160002080548060200260200160405190810160405280929190818152602001828054801561151857602002820191906000526020600020905b815481526020019060010190808311611504575b50505050509050919050565b60007f01ffc9a7000000000000000000000000000000000000000000000000000000007bffffffffffffffffffffffffffffffffffffffffffffffffffffffff1916827bffffffffffffffffffffffffffffffffffffffffffffffffffffffff1916149050919050565b61159781611fad565b6115d6576040517f08c379a00000000000000000000000000000000000000000000000000000000081526004016115cd906130af565b60405180910390fd5b50565b600033905090565b816004600083815260200190815260200160002060006101000a81548173ffffffffffffffffffffffffffffffffffffffff021916908373ffffffffffffffffffffffffffffffffffffffff160217905550808273ffffffffffffffffffffffffffffffffffffffff1661165483610acc565b73ffffffffffffffffffffffffffffffffffffffff167f8c5be1e5ebec7d5bd14f71427d1e84f3dd0314c0f7b2291e5b200ac8c7c3b92560405160405180910390a45050565b6000806116a683610acc565b90508073ffffffffffffffffffffffffffffffffffffffff168473ffffffffffffffffffffffffffffffffffffffff1614806116e857506116e781856113dc565b5b8061172657508373ffffffffffffffffffffffffffffffffffffffff1661170e8461074f565b73ffffffffffffffffffffffffffffffffffffffff16145b91505092915050565b8273ffffffffffffffffffffffffffffffffffffffff1661174f82610acc565b73ffffffffffffffffffffffffffffffffffffffff16146117a5576040517f08c379a000000000000000000000000000000000000000000000000000000000815260040161179c9061349a565b60405180910390fd5b600073ffffffffffffffffffffffffffffffffffffffff168273ffffffffffffffffffffffffffffffffffffffff1603611814576040517f08c379a000000000000000000000000000000000000000000000000000000000815260040161180b9061352c565b60405180910390fd5b6118218383836001611fee565b8273ffffffffffffffffffffffffffffffffffffffff1661184182610acc565b73ffffffffffffffffffffffffffffffffffffffff1614611897576040517f08c379a000000000000000000000000000000000000000000000000000000000815260040161188e9061349a565b60405180910390fd5b6004600082815260200190815260200160002060006101000a81549073ffffffffffffffffffffffffffffffffffffffff02191690556001600360008573ffffffffffffffffffffffffffffffffffffffff1673ffffffffffffffffffffffffffffffffffffffff168152602001908152602001600020600082825403925050819055506001600360008473ffffffffffffffffffffffffffffffffffffffff1673ffffffffffffffffffffffffffffffffffffffff16815260200190815260200160002060008282540192505081905550816002600083815260200190815260200160002060006101000a81548173ffffffffffffffffffffffffffffffffffffffff021916908373ffffffffffffffffffffffffffffffffffffffff160217905550808273ffffffffffffffffffffffffffffffffffffffff168473ffffffffffffffffffffffffffffffffffffffff167fddf252ad1be2c89b69c2b068fc378daa952ba7f163c4a11628f55a4df523b3ef60405160405180910390a4611a238383836001611ff4565b505050565b60006002600083815260200190815260200160002060009054906101000a900473ffffffffffffffffffffffffffffffffffffffff169050919050565b6001816000016000828254019250508190555050565b600081600001549050919050565b600073ffffffffffffffffffffffffffffffffffffffff168273ffffffffffffffffffffffffffffffffffffffff1603611af8576040517f08c379a0000000000000000000000000000000000000000000000000000000008152600401611aef90613598565b60405180910390fd5b611b0181611fad565b15611b41576040517f08c379a0000000000000000000000000000000000000000000000000000000008152600401611b3890613604565b60405180910390fd5b611b4f600083836001611fee565b611b5881611fad565b15611b98576040517f08c379a0000000000000000000000000000000000000000000000000000000008152600401611b8f90613604565b60405180910390fd5b6001600360008473ffffffffffffffffffffffffffffffffffffffff1673ffffffffffffffffffffffffffffffffffffffff16815260200190815260200160002060008282540192505081905550816002600083815260200190815260200160002060006101000a81548173ffffffffffffffffffffffffffffffffffffffff021916908373ffffffffffffffffffffffffffffffffffffffff160217905550808273ffffffffffffffffffffffffffffffffffffffff16600073ffffffffffffffffffffffffffffffffffffffff167fddf252ad1be2c89b69c2b068fc378daa952ba7f163c4a11628f55a4df523b3ef60405160405180910390a4611ca2600083836001611ff4565b5050565b611caf82611fad565b611cee576040517f08c379a0000000000000000000000000000000000000000000000000000000008152600401611ce590613696565b60405180910390fd5b80600660008481526020019081526020016000209081611d0e9190613862565b505050565b8173ffffffffffffffffffffffffffffffffffffffff168373ffffffffffffffffffffffffffffffffffffffff1603611d81576040517f08c379a0000000000000000000000000000000000000000000000000000000008152600401611d7890613980565b60405180910390fd5b80600560008573ffffffffffffffffffffffffffffffffffffffff1673ffffffffffffffffffffffffffffffffffffffff16815260200190815260200160002060008473ffffffffffffffffffffffffffffffffffffffff1673ffffffffffffffffffffffffffffffffffffffff16815260200190815260200160002060006101000a81548160ff0219169083151502179055508173ffffffffffffffffffffffffffffffffffffffff168373ffffffffffffffffffffffffffffffffffffffff167f17307eab39ab6107e8899845ad3d59bd9653f200f220920489ca2b5937696c3183604051611e729190612624565b60405180910390a3505050565b611e8881611ffa565b6000600660008381526020019081526020016000208054611ea890612d5d565b905014611ecf57600660008281526020019081526020016000206000611ece9190612513565b5b50565b611edd84848461172f565b611ee984848484612148565b611f28576040517f08c379a0000000000000000000000000000000000000000000000000000000008152600401611f1f90613a12565b60405180910390fd5b50505050565b606060405180602001604052806000815250905090565b6060611f508261158e565b6000611f5a611f2e565b90506000815111611f7a5760405180602001604052806000815250611fa5565b80611f84846122cf565b604051602001611f95929190613404565b6040516020818303038152906040525b915050919050565b60008073ffffffffffffffffffffffffffffffffffffffff16611fcf83611a28565b73ffffffffffffffffffffffffffffffffffffffff1614159050919050565b50505050565b50505050565b600061200582610acc565b9050612015816000846001611fee565b61201e82610acc565b90506004600083815260200190815260200160002060006101000a81549073ffffffffffffffffffffffffffffffffffffffff02191690556001600360008373ffffffffffffffffffffffffffffffffffffffff1673ffffffffffffffffffffffffffffffffffffffff168152602001908152602001600020600082825403925050819055506002600083815260200190815260200160002060006101000a81549073ffffffffffffffffffffffffffffffffffffffff021916905581600073ffffffffffffffffffffffffffffffffffffffff168273ffffffffffffffffffffffffffffffffffffffff167fddf252ad1be2c89b69c2b068fc378daa952ba7f163c4a11628f55a4df523b3ef60405160405180910390a4612144816000846001611ff4565b5050565b60006121698473ffffffffffffffffffffffffffffffffffffffff1661239d565b156122c2578373ffffffffffffffffffffffffffffffffffffffff1663150b7a026121926115d9565b8786866040518563ffffffff1660e01b81526004016121b49493929190613a87565b6020604051808303816000875af19250505080156121f057506040513d601f19601f820116820180604052508101906121ed9190613ae8565b60015b612272573d8060008114612220576040519150601f19603f3d011682016040523d82523d6000602084013e612225565b606091505b50600081510361226a576040517f08c379a000000000000000000000000000000000000000000000000000000000815260040161226190613a12565b60405180910390fd5b805181602001fd5b63150b7a0260e01b7bffffffffffffffffffffffffffffffffffffffffffffffffffffffff1916817bffffffffffffffffffffffffffffffffffffffffffffffffffffffff1916149150506122c7565b600190505b949350505050565b6060600060016122de846123c0565b01905060008167ffffffffffffffff8111156122fd576122fc6128a3565b5b6040519080825280601f01601f19166020018201604052801561232f5781602001600182028036833780820191505090505b509050600082602001820190505b600115612392578080600190039150507f3031323334353637383961626364656600000000000000000000000000000000600a86061a8153600a858161238657612385613b15565b5b0494506000850361233d575b819350505050919050565b6000808273ffffffffffffffffffffffffffffffffffffffff163b119050919050565b600080600090507a184f03e93ff9f4daa797ed6e38ed64bf6a1f010000000000000000831061241e577a184f03e93ff9f4daa797ed6e38ed64bf6a1f010000000000000000838161241457612413613b15565b5b0492506040810190505b6d04ee2d6d415b85acef8100000000831061245b576d04ee2d6d415b85acef8100000000838161245157612450613b15565b5b0492506020810190505b662386f26fc10000831061248a57662386f26fc1000083816124805761247f613b15565b5b0492506010810190505b6305f5e10083106124b3576305f5e10083816124a9576124a8613b15565b5b0492506008810190505b61271083106124d85761271083816124ce576124cd613b15565b5b0492506004810190505b606483106124fb57606483816124f1576124f0613b15565b5b0492506002810190505b600a831061250a576001810190505b80915050919050565b50805461251f90612d5d565b6000825580601f106125315750612550565b601f01602090049060005260206000209081019061254f9190612553565b5b50565b5b8082111561256c576000816000905550600101612554565b5090565b6000604051905090565b600080fd5b600080fd5b60007fffffffff0000000000000000000000000000000000000000000000000000000082169050919050565b6125b981612584565b81146125c457600080fd5b50565b6000813590506125d6816125b0565b92915050565b6000602082840312156125f2576125f161257a565b5b6000612600848285016125c7565b91505092915050565b60008115159050919050565b61261e81612609565b82525050565b60006020820190506126396000830184612615565b92915050565b600081519050919050565b600082825260208201905092915050565b60005b8381101561267957808201518184015260208101905061265e565b60008484015250505050565b6000601f19601f8301169050919050565b60006126a18261263f565b6126ab818561264a565b93506126bb81856020860161265b565b6126c481612685565b840191505092915050565b600060208201905081810360008301526126e98184612696565b905092915050565b6000819050919050565b612704816126f1565b811461270f57600080fd5b50565b600081359050612721816126fb565b92915050565b60006020828403121561273d5761273c61257a565b5b600061274b84828501612712565b91505092915050565b600073ffffffffffffffffffffffffffffffffffffffff82169050919050565b600061277f82612754565b9050919050565b61278f81612774565b82525050565b60006020820190506127aa6000830184612786565b92915050565b6127b981612774565b81146127c457600080fd5b50565b6000813590506127d6816127b0565b92915050565b600080604083850312156127f3576127f261257a565b5b6000612801858286016127c7565b925050602061281285828601612712565b9150509250929050565b6000806000606084860312156128355761283461257a565b5b6000612843868287016127c7565b9350506020612854868287016127c7565b925050604061286586828701612712565b9150509250925092565b612878816126f1565b82525050565b6000602082019050612893600083018461286f565b92915050565b600080fd5b600080fd5b7f4e487b7100000000000000000000000000000000000000000000000000000000600052604160045260246000fd5b6128db82612685565b810181811067ffffffffffffffff821117156128fa576128f96128a3565b5b80604052505050565b600061290d612570565b905061291982826128d2565b919050565b600067ffffffffffffffff821115612939576129386128a3565b5b61294282612685565b9050602081019050919050565b82818337600083830152505050565b600061297161296c8461291e565b612903565b90508281526020810184848401111561298d5761298c61289e565b5b61299884828561294f565b509392505050565b600082601f8301126129b5576129b4612899565b5b81356129c584826020860161295e565b91505092915050565b600080600080608085870312156129e8576129e761257a565b5b60006129f687828801612712565b9450506020612a0787828801612712565b935050604085013567ffffffffffffffff811115612a2857612a2761257f565b5b612a34878288016129a0565b9250506060612a4587828801612712565b91505092959194509250565b600060208284031215612a6757612a6661257a565b5b6000612a75848285016127c7565b91505092915050565b612a8781612609565b8114612a9257600080fd5b50565b600081359050612aa481612a7e565b92915050565b60008060408385031215612ac157612ac061257a565b5b6000612acf858286016127c7565b9250506020612ae085828601612a95565b9150509250929050565b600067ffffffffffffffff821115612b0557612b046128a3565b5b612b0e82612685565b9050602081019050919050565b6000612b2e612b2984612aea565b612903565b905082815260208101848484011115612b4a57612b4961289e565b5b612b5584828561294f565b509392505050565b600082601f830112612b7257612b71612899565b5b8135612b82848260208601612b1b565b91505092915050565b60008060008060808587031215612ba557612ba461257a565b5b6000612bb3878288016127c7565b9450506020612bc4878288016127c7565b9350506040612bd587828801612712565b925050606085013567ffffffffffffffff811115612bf657612bf561257f565b5b612c0287828801612b5d565b91505092959194509250565b60008060408385031215612c2557612c2461257a565b5b6000612c33858286016127c7565b9250506020612c44858286016127c7565b9150509250929050565b600081519050919050565b600082825260208201905092915050565b6000819050602082019050919050565b612c83816126f1565b82525050565b6000612c958383612c7a565b60208301905092915050565b6000602082019050919050565b6000612cb982612c4e565b612cc38185612c59565b9350612cce83612c6a565b8060005b83811015612cff578151612ce68882612c89565b9750612cf183612ca1565b925050600181019050612cd2565b5085935050505092915050565b60006020820190508181036000830152612d268184612cae565b905092915050565b7f4e487b7100000000000000000000000000000000000000000000000000000000600052602260045260246000fd5b60006002820490506001821680612d7557607f821691505b602082108103612d8857612d87612d2e565b5b50919050565b7f4552433732313a20617070726f76616c20746f2063757272656e74206f776e6560008201527f7200000000000000000000000000000000000000000000000000000000000000602082015250565b6000612dea60218361264a565b9150612df582612d8e565b604082019050919050565b60006020820190508181036000830152612e1981612ddd565b9050919050565b7f4552433732313a20617070726f76652063616c6c6572206973206e6f7420746f60008201527f6b656e206f776e6572206f7220617070726f76656420666f7220616c6c000000602082015250565b6000612e7c603d8361264a565b9150612e8782612e20565b604082019050919050565b60006020820190508181036000830152612eab81612e6f565b9050919050565b600081519050612ec181612a7e565b92915050565b600060208284031215612edd57612edc61257a565b5b6000612eeb84828501612eb2565b91505092915050565b7f43616c6c6572206973206e6f7420616e206576656e74206f7267616e697a6572600082015250565b6000612f2a60208361264a565b9150612f3582612ef4565b602082019050919050565b60006020820190508181036000830152612f5981612f1d565b9050919050565b7f4e487b7100000000000000000000000000000000000000000000000000000000600052601160045260246000fd5b6000612f9a826126f1565b9150612fa5836126f1565b9250828202612fb3816126f1565b91508282048414831517612fca57612fc9612f60565b5b5092915050565b7f4552433732313a2063616c6c6572206973206e6f7420746f6b656e206f776e6560008201527f72206f7220617070726f76656400000000000000000000000000000000000000602082015250565b600061302d602d8361264a565b915061303882612fd1565b604082019050919050565b6000602082019050818103600083015261305c81613020565b9050919050565b7f4552433732313a20696e76616c696420746f6b656e2049440000000000000000600082015250565b600061309960188361264a565b91506130a482613063565b602082019050919050565b600060208201905081810360008301526130c88161308c565b9050919050565b60006040820190506130e4600083018561286f565b6130f1602083018461286f565b9392505050565b6000613103826126f1565b915061310e836126f1565b925082820390508181111561312657613125612f60565b5b92915050565b7f4552433732313a2061646472657373207a65726f206973206e6f74206120766160008201527f6c6964206f776e65720000000000000000000000000000000000000000000000602082015250565b600061318860298361264a565b91506131938261312c565b604082019050919050565b600060208201905081810360008301526131b78161317b565b9050919050565b7f43616c6c6572206973206e6f7420746865207469636b6574206f776e65720000600082015250565b60006131f4601e8361264a565b91506131ff826131be565b602082019050919050565b60006020820190508181036000830152613223816131e7565b9050919050565b7f416c6c207469636b6574732068617665206265656e20736f6c64000000000000600082015250565b6000613260601a8361264a565b915061326b8261322a565b602082019050919050565b6000602082019050818103600083015261328f81613253565b9050919050565b7f4e6f206d6f7265207469636b65747320617661696c61626c6520666f7220746860008201527f6973206576656e74000000000000000000000000000000000000000000000000602082015250565b60006132f260288361264a565b91506132fd82613296565b604082019050919050565b60006020820190508181036000830152613321816132e5565b9050919050565b7f496e636f72726563742045746865722076616c75652073656e74000000000000600082015250565b600061335e601a8361264a565b915061336982613328565b602082019050919050565b6000602082019050818103600083015261338d81613351565b9050919050565b600061339f826126f1565b91506133aa836126f1565b92508282019050808211156133c2576133c1612f60565b5b92915050565b600081905092915050565b60006133de8261263f565b6133e881856133c8565b93506133f881856020860161265b565b80840191505092915050565b600061341082856133d3565b915061341c82846133d3565b91508190509392505050565b7f4552433732313a207472616e736665722066726f6d20696e636f72726563742060008201527f6f776e6572000000000000000000000000000000000000000000000000000000602082015250565b600061348460258361264a565b915061348f82613428565b604082019050919050565b600060208201905081810360008301526134b381613477565b9050919050565b7f4552433732313a207472616e7366657220746f20746865207a65726f2061646460008201527f7265737300000000000000000000000000000000000000000000000000000000602082015250565b600061351660248361264a565b9150613521826134ba565b604082019050919050565b6000602082019050818103600083015261354581613509565b9050919050565b7f4552433732313a206d696e7420746f20746865207a65726f2061646472657373600082015250565b600061358260208361264a565b915061358d8261354c565b602082019050919050565b600060208201905081810360008301526135b181613575565b9050919050565b7f4552433732313a20746f6b656e20616c7265616479206d696e74656400000000600082015250565b60006135ee601c8361264a565b91506135f9826135b8565b602082019050919050565b6000602082019050818103600083015261361d816135e1565b9050919050565b7f45524337323155524953746f726167653a2055524920736574206f66206e6f6e60008201527f6578697374656e7420746f6b656e000000000000000000000000000000000000602082015250565b6000613680602e8361264a565b915061368b82613624565b604082019050919050565b600060208201905081810360008301526136af81613673565b9050919050565b60008190508160005260206000209050919050565b60006020601f8301049050919050565b600082821b905092915050565b6000600883026137187fffffffffffffffffffffffffffffffffffffffffffffffffffffffffffffffff826136db565b61372286836136db565b95508019841693508086168417925050509392505050565b6000819050919050565b600061375f61375a613755846126f1565b61373a565b6126f1565b9050919050565b6000819050919050565b61377983613744565b61378d61378582613766565b8484546136e8565b825550505050565b600090565b6137a2613795565b6137ad818484613770565b505050565b5b818110156137d1576137c660008261379a565b6001810190506137b3565b5050565b601f821115613816576137e7816136b6565b6137f0846136cb565b810160208510156137ff578190505b61381361380b856136cb565b8301826137b2565b50505b505050565b600082821c905092915050565b60006138396000198460080261381b565b1980831691505092915050565b60006138528383613828565b9150826002028217905092915050565b61386b8261263f565b67ffffffffffffffff811115613884576138836128a3565b5b61388e8254612d5d565b6138998282856137d5565b600060209050601f8311600181146138cc57600084156138ba578287015190505b6138c48582613846565b86555061392c565b601f1984166138da866136b6565b60005b82811015613902578489015182556001820191506020850194506020810190506138dd565b8683101561391f578489015161391b601f891682613828565b8355505b6001600288020188555050505b505050505050565b7f4552433732313a20617070726f766520746f2063616c6c657200000000000000600082015250565b600061396a60198361264a565b915061397582613934565b602082019050919050565b600060208201905081810360008301526139998161395d565b9050919050565b7f4552433732313a207472616e7366657220746f206e6f6e20455243373231526560008201527f63656976657220696d706c656d656e7465720000000000000000000000000000602082015250565b60006139fc60328361264a565b9150613a07826139a0565b604082019050919050565b60006020820190508181036000830152613a2b816139ef565b9050919050565b600081519050919050565b600082825260208201905092915050565b6000613a5982613a32565b613a638185613a3d565b9350613a7381856020860161265b565b613a7c81612685565b840191505092915050565b6000608082019050613a9c6000830187612786565b613aa96020830186612786565b613ab6604083018561286f565b8181036060830152613ac88184613a4e565b905095945050505050565b600081519050613ae2816125b0565b92915050565b600060208284031215613afe57613afd61257a565b5b6000613b0c84828501613ad3565b91505092915050565b7f4e487b7100000000000000000000000000000000000000000000000000000000600052601260045260246000fdfea264697066735822122041522d856831f539bf09ce44b57e0df872196e2ad5687be428dd930e8685c58264736f6c63430008130033",
  "immutableReferences": {},
  "source": "// SPDX-License-Identifier: UNLICENSED\npragma solidity ^0.8.19;\n\nimport \"@openzeppelin/contracts/token/ERC721/ERC721.sol\";\nimport \"@openzeppelin/contracts/token/ERC721/extensions/ERC721URIStorage.sol\";\nimport \"@openzeppelin/contracts/utils/Counters.sol\";\nimport \"./UserAccount.sol\";\n\ncontract TicketNFT is ERC721URIStorage {\n    using Counters for Counters.Counter;\n\n    // Add a mapping to store events created by each organizer\n    mapping(address => uint256[]) private _organizerEvents;\n\n    // burnTicket() function\n    function burnTicket(uint256 ticketId) public onlyEventOrganizer {\n        require(\n            ownerOf(ticketId) == msg.sender,\n            \"Caller is not the ticket owner\"\n        );\n        require(\n            getTicketsAvailable(ticketId) > 0,\n            \"All tickets have been sold\"\n        );\n        _burn(ticketId);\n    }\n\n    // Reference to the UserAccount contract\n    UserAccount private _userAccount;\n    // Counter to keep track of unique ticket IDs\n    Counters.Counter private _ticketIdCounter;\n\n    // Mappings to store ticket metadata\n    mapping(uint256 => uint256) private _ticketPrices;\n    mapping(uint256 => uint256) private _ticketEventIds;\n    mapping(uint256 => uint256) private _ticketQuantities;\n    mapping(uint256 => uint256) private _ticketsSold;\n\n    // Event emitted when a new ticket is minted\n    event TicketMinted(\n        uint256 indexed ticketId,\n        uint256 indexed eventId,\n        address indexed owner,\n        uint256 price,\n        uint256 quantity\n    );\n\n    // Constructor initializes the contract with a reference to the EventManager contract\n    constructor(address userAccountAddress) ERC721(\"TicketNFT\", \"TNFT\") {\n        _userAccount = UserAccount(userAccountAddress);\n    }\n\n    // Modifier to restrict certain actions to event organizers only\n    modifier onlyEventOrganizer() {\n        require(\n            _userAccount.isEventOrganizer(msg.sender),\n            \"Caller is not an event organizer\"\n        );\n        _;\n    }\n\n    // Function to mint a new ticket for an event\n    function mintTicket(\n        uint256 eventId,\n        uint256 price,\n        string memory tokenURI,\n        uint256 quantity\n    ) public onlyEventOrganizer {\n        _ticketIdCounter.increment();\n\n        uint256 ticketId = _ticketIdCounter.current();\n\n        _mint(msg.sender, ticketId);\n        _setTokenURI(ticketId, tokenURI);\n\n        // Update the _organizerEvents mapping\n        _organizerEvents[msg.sender].push(eventId);\n\n        _ticketPrices[ticketId] = price;\n        _ticketEventIds[ticketId] = eventId;\n        _ticketQuantities[ticketId] = quantity;\n        _ticketsSold[ticketId] = 0;\n\n        emit TicketMinted(ticketId, eventId, msg.sender, price, quantity);\n    }\n\n    // Function to purchase a ticket\n    function purchaseTicket(uint256 ticketId) public payable {\n        uint256 price = _ticketPrices[ticketId];\n        address ticketOwner = ownerOf(ticketId);\n        uint256 availableTickets = _ticketQuantities[ticketId] -\n            _ticketsSold[ticketId];\n        require(\n            availableTickets > 0,\n            \"No more tickets available for this event\"\n        );\n        require(msg.value == price, \"Incorrect Ether value sent\");\n\n        payable(ticketOwner).transfer(msg.value);\n\n        _ticketsSold[ticketId] += 1;\n        _safeTransfer(ticketOwner, msg.sender, ticketId, \"\");\n    }\n\n    // Add a function to get the list of event IDs for a specific organizer\n    function getOrganizerEvents(\n        address organizer\n    ) public view returns (uint256[] memory) {\n        return _organizerEvents[organizer];\n    }\n\n    // Function for event organizers to withdraw funds from ticket sales\n    function withdrawFunds(uint256 ticketId) public onlyEventOrganizer {\n        address payable ticketOwner = payable(ownerOf(ticketId));\n        uint256 amountToWithdraw = _ticketsSold[ticketId] *\n            _ticketPrices[ticketId];\n\n        ticketOwner.transfer(amountToWithdraw);\n        _ticketsSold[ticketId] = 0;\n    }\n\n    // Getter functions for ticket metadata\n    function getTicketPrice(uint256 ticketId) public view returns (uint256) {\n        return _ticketPrices[ticketId];\n    }\n\n    function getTicketEventId(uint256 ticketId) public view returns (uint256) {\n        return _ticketEventIds[ticketId];\n    }\n\n    function getTicketQuantity(uint256 ticketId) public view returns (uint256) {\n        return _ticketQuantities[ticketId];\n    }\n\n    function getTicketsSold(uint256 ticketId) public view returns (uint256) {\n        return _ticketsSold[ticketId];\n    }\n\n    // Function to get the number of available tickets for a given ticket ID\n    function getTicketsAvailable(\n        uint256 ticketId\n    ) public view returns (uint256) {\n        return _ticketQuantities[ticketId] - _ticketsSold[ticketId];\n    }\n}\n",
  "sourcePath": "/Volumes/STUDY/MDX/Undergraduate Individual Project/NFT-Tickets-SmartContracts/contracts/TicketNFT.sol",
  "compiler": {
    "name": "solc",
    "version": "0.8.19+commit.7dd6d404.Emscripten.clang"
  },
  "schemaVersion": "3.4.13",
  "updatedAt": "2023-04-28T17:34:31.878Z",
  "networkType": "ethereum",
  "devdoc": {
    "events": {
      "Approval(address,address,uint256)": {
        "details": "Emitted when `owner` enables `approved` to manage the `tokenId` token."
      },
      "ApprovalForAll(address,address,bool)": {
        "details": "Emitted when `owner` enables or disables (`approved`) `operator` to manage all of its assets."
      },
      "Transfer(address,address,uint256)": {
        "details": "Emitted when `tokenId` token is transferred from `from` to `to`."
      }
    },
    "kind": "dev",
    "methods": {
      "approve(address,uint256)": {
        "details": "See {IERC721-approve}."
      },
      "balanceOf(address)": {
        "details": "See {IERC721-balanceOf}."
      },
      "getApproved(uint256)": {
        "details": "See {IERC721-getApproved}."
      },
      "isApprovedForAll(address,address)": {
        "details": "See {IERC721-isApprovedForAll}."
      },
      "name()": {
        "details": "See {IERC721Metadata-name}."
      },
      "ownerOf(uint256)": {
        "details": "See {IERC721-ownerOf}."
      },
      "safeTransferFrom(address,address,uint256)": {
        "details": "See {IERC721-safeTransferFrom}."
      },
      "safeTransferFrom(address,address,uint256,bytes)": {
        "details": "See {IERC721-safeTransferFrom}."
      },
      "setApprovalForAll(address,bool)": {
        "details": "See {IERC721-setApprovalForAll}."
      },
      "supportsInterface(bytes4)": {
        "details": "See {IERC165-supportsInterface}."
      },
      "symbol()": {
        "details": "See {IERC721Metadata-symbol}."
      },
      "tokenURI(uint256)": {
        "details": "See {IERC721Metadata-tokenURI}."
      },
      "transferFrom(address,address,uint256)": {
        "details": "See {IERC721-transferFrom}."
      }
    },
    "version": 1
  },
  "userdoc": {
    "kind": "user",
    "methods": {},
    "version": 1
  }
}