{
  "contractName": "UserAccount",
  "abi": [
    {
      "inputs": [],
      "stateMutability": "nonpayable",
      "type": "constructor"
    },
    {
      "anonymous": false,
      "inputs": [
        {
          "indexed": true,
          "internalType": "uint256",
          "name": "userId",
          "type": "uint256"
        },
        {
          "indexed": false,
          "internalType": "string",
          "name": "name",
          "type": "string"
        },
        {
          "indexed": false,
          "internalType": "string",
          "name": "email",
          "type": "string"
        },
        {
          "indexed": false,
          "internalType": "address",
          "name": "userAddress",
          "type": "address"
        }
      ],
      "name": "NewUser",
      "type": "event"
    },
    {
      "anonymous": false,
      "inputs": [
        {
          "indexed": true,
          "internalType": "bytes32",
          "name": "role",
          "type": "bytes32"
        },
        {
          "indexed": true,
          "internalType": "bytes32",
          "name": "previousAdminRole",
          "type": "bytes32"
        },
        {
          "indexed": true,
          "internalType": "bytes32",
          "name": "newAdminRole",
          "type": "bytes32"
        }
      ],
      "name": "RoleAdminChanged",
      "type": "event"
    },
    {
      "anonymous": false,
      "inputs": [
        {
          "indexed": true,
          "internalType": "bytes32",
          "name": "role",
          "type": "bytes32"
        },
        {
          "indexed": true,
          "internalType": "address",
          "name": "account",
          "type": "address"
        },
        {
          "indexed": true,
          "internalType": "address",
          "name": "sender",
          "type": "address"
        }
      ],
      "name": "RoleGranted",
      "type": "event"
    },
    {
      "anonymous": false,
      "inputs": [
        {
          "indexed": true,
          "internalType": "bytes32",
          "name": "role",
          "type": "bytes32"
        },
        {
          "indexed": true,
          "internalType": "address",
          "name": "account",
          "type": "address"
        },
        {
          "indexed": true,
          "internalType": "address",
          "name": "sender",
          "type": "address"
        }
      ],
      "name": "RoleRevoked",
      "type": "event"
    },
    {
      "inputs": [],
      "name": "DEFAULT_ADMIN_ROLE",
      "outputs": [
        {
          "internalType": "bytes32",
          "name": "",
          "type": "bytes32"
        }
      ],
      "stateMutability": "view",
      "type": "function",
      "constant": true
    },
    {
      "inputs": [],
      "name": "EVENT_ORGANIZER_ROLE",
      "outputs": [
        {
          "internalType": "bytes32",
          "name": "",
          "type": "bytes32"
        }
      ],
      "stateMutability": "view",
      "type": "function",
      "constant": true
    },
    {
      "inputs": [],
      "name": "TICKET_USER_ROLE",
      "outputs": [
        {
          "internalType": "bytes32",
          "name": "",
          "type": "bytes32"
        }
      ],
      "stateMutability": "view",
      "type": "function",
      "constant": true
    },
    {
      "inputs": [
        {
          "internalType": "bytes32",
          "name": "role",
          "type": "bytes32"
        }
      ],
      "name": "getRoleAdmin",
      "outputs": [
        {
          "internalType": "bytes32",
          "name": "",
          "type": "bytes32"
        }
      ],
      "stateMutability": "view",
      "type": "function",
      "constant": true
    },
    {
      "inputs": [
        {
          "internalType": "bytes32",
          "name": "role",
          "type": "bytes32"
        },
        {
          "internalType": "address",
          "name": "account",
          "type": "address"
        }
      ],
      "name": "grantRole",
      "outputs": [],
      "stateMutability": "nonpayable",
      "type": "function"
    },
    {
      "inputs": [
        {
          "internalType": "bytes32",
          "name": "role",
          "type": "bytes32"
        },
        {
          "internalType": "address",
          "name": "account",
          "type": "address"
        }
      ],
      "name": "hasRole",
      "outputs": [
        {
          "internalType": "bool",
          "name": "",
          "type": "bool"
        }
      ],
      "stateMutability": "view",
      "type": "function",
      "constant": true
    },
    {
      "inputs": [
        {
          "internalType": "bytes32",
          "name": "role",
          "type": "bytes32"
        },
        {
          "internalType": "address",
          "name": "account",
          "type": "address"
        }
      ],
      "name": "renounceRole",
      "outputs": [],
      "stateMutability": "nonpayable",
      "type": "function"
    },
    {
      "inputs": [
        {
          "internalType": "bytes32",
          "name": "role",
          "type": "bytes32"
        },
        {
          "internalType": "address",
          "name": "account",
          "type": "address"
        }
      ],
      "name": "revokeRole",
      "outputs": [],
      "stateMutability": "nonpayable",
      "type": "function"
    },
    {
      "inputs": [
        {
          "internalType": "bytes4",
          "name": "interfaceId",
          "type": "bytes4"
        }
      ],
      "name": "supportsInterface",
      "outputs": [
        {
          "internalType": "bool",
          "name": "",
          "type": "bool"
        }
      ],
      "stateMutability": "view",
      "type": "function",
      "constant": true
    },
    {
      "inputs": [
        {
          "internalType": "address",
          "name": "eventManagerAddress",
          "type": "address"
        }
      ],
      "name": "setEventManagerAddress",
      "outputs": [],
      "stateMutability": "nonpayable",
      "type": "function"
    },
    {
      "inputs": [
        {
          "internalType": "address",
          "name": "ticketNFTAddress",
          "type": "address"
        }
      ],
      "name": "setTicketNFTAddress",
      "outputs": [],
      "stateMutability": "nonpayable",
      "type": "function"
    },
    {
      "inputs": [
        {
          "internalType": "string",
          "name": "name",
          "type": "string"
        },
        {
          "internalType": "string",
          "name": "email",
          "type": "string"
        },
        {
          "internalType": "bool",
          "name": "organizerRole",
          "type": "bool"
        }
      ],
      "name": "registerUser",
      "outputs": [],
      "stateMutability": "nonpayable",
      "type": "function"
    },
    {
      "inputs": [
        {
          "internalType": "uint256",
          "name": "userId",
          "type": "uint256"
        }
      ],
      "name": "getUserProfile",
      "outputs": [
        {
          "components": [
            {
              "internalType": "uint256",
              "name": "id",
              "type": "uint256"
            },
            {
              "internalType": "string",
              "name": "name",
              "type": "string"
            },
            {
              "internalType": "string",
              "name": "email",
              "type": "string"
            },
            {
              "internalType": "address",
              "name": "userAddress",
              "type": "address"
            }
          ],
          "internalType": "struct UserAccount.UserProfile",
          "name": "",
          "type": "tuple"
        }
      ],
      "stateMutability": "view",
      "type": "function",
      "constant": true
    },
    {
      "inputs": [
        {
          "internalType": "address",
          "name": "userAddress",
          "type": "address"
        }
      ],
      "name": "getUserProfileByAddress",
      "outputs": [
        {
          "components": [
            {
              "internalType": "uint256",
              "name": "id",
              "type": "uint256"
            },
            {
              "internalType": "string",
              "name": "name",
              "type": "string"
            },
            {
              "internalType": "string",
              "name": "email",
              "type": "string"
            },
            {
              "internalType": "address",
              "name": "userAddress",
              "type": "address"
            }
          ],
          "internalType": "struct UserAccount.UserProfile",
          "name": "",
          "type": "tuple"
        }
      ],
      "stateMutability": "view",
      "type": "function",
      "constant": true
    },
    {
      "inputs": [
        {
          "internalType": "address",
          "name": "userAddress",
          "type": "address"
        }
      ],
      "name": "isEventOrganizer",
      "outputs": [
        {
          "internalType": "bool",
          "name": "",
          "type": "bool"
        }
      ],
      "stateMutability": "view",
      "type": "function",
      "constant": true
    },
    {
      "inputs": [
        {
          "internalType": "address",
          "name": "userAddress",
          "type": "address"
        }
      ],
      "name": "isTicketUser",
      "outputs": [
        {
          "internalType": "bool",
          "name": "",
          "type": "bool"
        }
      ],
      "stateMutability": "view",
      "type": "function",
      "constant": true
    },
    {
      "inputs": [
        {
          "internalType": "uint256",
          "name": "userId",
          "type": "uint256"
        },
        {
          "internalType": "string",
          "name": "name",
          "type": "string"
        },
        {
          "internalType": "string",
          "name": "email",
          "type": "string"
        }
      ],
      "name": "updateUserProfile",
      "outputs": [],
      "stateMutability": "nonpayable",
      "type": "function"
    },
    {
      "inputs": [
        {
          "internalType": "bool",
          "name": "organizerRole",
          "type": "bool"
        }
      ],
      "name": "switchUserRole",
      "outputs": [],
      "stateMutability": "nonpayable",
      "type": "function"
    }
  ],
  "bytecode": "0x60806040523480156200001157600080fd5b50620000276000801b336200002d60201b60201c565b620001a6565b6200003f82826200004360201b60201c565b5050565b6200005582826200013460201b60201c565b6200013057600160008084815260200190815260200160002060000160008373ffffffffffffffffffffffffffffffffffffffff1673ffffffffffffffffffffffffffffffffffffffff16815260200190815260200160002060006101000a81548160ff021916908315150217905550620000d56200019e60201b60201c565b73ffffffffffffffffffffffffffffffffffffffff168173ffffffffffffffffffffffffffffffffffffffff16837f2f8788117e7eff1d82e926ec794901d17c78024a50270940304540a733656f0d60405160405180910390a45b5050565b600080600084815260200190815260200160002060000160008373ffffffffffffffffffffffffffffffffffffffff1673ffffffffffffffffffffffffffffffffffffffff16815260200190815260200160002060009054906101000a900460ff16905092915050565b600033905090565b61200980620001b66000396000f3fe608060405234801561001057600080fd5b50600436106101165760003560e01c806391a03fa5116100a2578063c2d602ea11610071578063c2d602ea14610303578063d176c9a91461031f578063d547741f1461033d578063d851b90a14610359578063f807ae911461037557610116565b806391a03fa51461026757806391d14854146102975780639f601aca146102c7578063a217fddf146102e557610116565b8063248a9ca3116100e9578063248a9ca3146101b35780632b808fb3146101e35780632f2ff15d146101ff57806336568abe1461021b5780638fc8926f1461023757610116565b806301ffc9a71461011b5780630a6626401461014b578063181f51c6146101675780631f52b76c14610183575b600080fd5b61013560048036038101906101309190611258565b6103a5565b60405161014291906112a0565b60405180910390f35b61016560048036038101906101609190611319565b61041f565b005b610181600480360381019061017c91906114b8565b610471565b005b61019d60048036038101906101989190611579565b610679565b6040516101aa91906116ad565b60405180910390f35b6101cd60048036038101906101c89190611705565b61082a565b6040516101da9190611741565b60405180910390f35b6101fd60048036038101906101f8919061175c565b610849565b005b610219600480360381019061021491906117e7565b61090b565b005b610235600480360381019061023091906117e7565b61092c565b005b610251600480360381019061024c9190611319565b6109af565b60405161025e91906112a0565b60405180910390f35b610281600480360381019061027c9190611319565b6109e2565b60405161028e91906112a0565b60405180910390f35b6102b160048036038101906102ac91906117e7565b610a15565b6040516102be91906112a0565b60405180910390f35b6102cf610a7f565b6040516102dc9190611741565b60405180910390f35b6102ed610aa3565b6040516102fa9190611741565b60405180910390f35b61031d60048036038101906103189190611827565b610aaa565b005b610327610b61565b6040516103349190611741565b60405180910390f35b610357600480360381019061035291906117e7565b610b85565b005b610373600480360381019061036e9190611319565b610ba6565b005b61038f600480360381019061038a9190611319565b610bf8565b60405161039c91906116ad565b60405180910390f35b60007f7965db0b000000000000000000000000000000000000000000000000000000007bffffffffffffffffffffffffffffffffffffffffffffffffffffffff1916827bffffffffffffffffffffffffffffffffffffffffffffffffffffffff19161480610418575061041782610c55565b5b9050919050565b6000801b61042c81610cbf565b81600360006101000a81548173ffffffffffffffffffffffffffffffffffffffff021916908373ffffffffffffffffffffffffffffffffffffffff1602179055505050565b6000600560003373ffffffffffffffffffffffffffffffffffffffff1673ffffffffffffffffffffffffffffffffffffffff16815260200190815260200160002054146104f3576040517f08c379a00000000000000000000000000000000000000000000000000000000081526004016104ea906118b1565b60405180910390fd5b6104fd6001610cd3565b60006105096001610ce9565b905060006004600083815260200190815260200160002090508181600001819055508481600101908161053c9190611add565b508381600201908161054e9190611add565b50338160030160006101000a81548173ffffffffffffffffffffffffffffffffffffffff021916908373ffffffffffffffffffffffffffffffffffffffff16021790555081600560003373ffffffffffffffffffffffffffffffffffffffff1673ffffffffffffffffffffffffffffffffffffffff16815260200190815260200160002081905550821561060b576106067fd2b5f769a52ed056f46d9bbaf0db7977d4d41cd52c9ddd73089bb0210a6302453361090b565b610636565b6106357fac77a3332b3dc20c428645d173e075da670071640203e7c90283e8264a4549173361090b565b5b817f633288f706a900507d4371bb7d39631769897468e524a8e76d7e4337e0c60c6c86863360405161066a93929190611bf7565b60405180910390a25050505050565b6106816111ae565b60046000838152602001908152602001600020604051806080016040529081600082015481526020016001820180546106b990611900565b80601f01602080910402602001604051908101604052809291908181526020018280546106e590611900565b80156107325780601f1061070757610100808354040283529160200191610732565b820191906000526020600020905b81548152906001019060200180831161071557829003601f168201915b5050505050815260200160028201805461074b90611900565b80601f016020809104026020016040519081016040528092919081815260200182805461077790611900565b80156107c45780601f10610799576101008083540402835291602001916107c4565b820191906000526020600020905b8154815290600101906020018083116107a757829003601f168201915b505050505081526020016003820160009054906101000a900473ffffffffffffffffffffffffffffffffffffffff1673ffffffffffffffffffffffffffffffffffffffff1673ffffffffffffffffffffffffffffffffffffffff16815250509050919050565b6000806000838152602001908152602001600020600101549050919050565b82600560003373ffffffffffffffffffffffffffffffffffffffff1673ffffffffffffffffffffffffffffffffffffffff16815260200190815260200160002054146108ca576040517f08c379a00000000000000000000000000000000000000000000000000000000081526004016108c190611c88565b60405180910390fd5b6000600460008581526020019081526020016000209050828160010190816108f29190611add565b50818160020190816109049190611add565b5050505050565b6109148261082a565b61091d81610cbf565b6109278383610cf7565b505050565b610934610dd7565b73ffffffffffffffffffffffffffffffffffffffff168173ffffffffffffffffffffffffffffffffffffffff16146109a1576040517f08c379a000000000000000000000000000000000000000000000000000000000815260040161099890611d1a565b60405180910390fd5b6109ab8282610ddf565b5050565b60006109db7fac77a3332b3dc20c428645d173e075da670071640203e7c90283e8264a45491783610a15565b9050919050565b6000610a0e7fd2b5f769a52ed056f46d9bbaf0db7977d4d41cd52c9ddd73089bb0210a63024583610a15565b9050919050565b600080600084815260200190815260200160002060000160008373ffffffffffffffffffffffffffffffffffffffff1673ffffffffffffffffffffffffffffffffffffffff16815260200190815260200160002060009054906101000a900460ff16905092915050565b7fd2b5f769a52ed056f46d9bbaf0db7977d4d41cd52c9ddd73089bb0210a63024581565b6000801b81565b8015610b0957610ada7fac77a3332b3dc20c428645d173e075da670071640203e7c90283e8264a45491733610b85565b610b047fd2b5f769a52ed056f46d9bbaf0db7977d4d41cd52c9ddd73089bb0210a6302453361090b565b610b5e565b610b337fd2b5f769a52ed056f46d9bbaf0db7977d4d41cd52c9ddd73089bb0210a63024533610b85565b610b5d7fac77a3332b3dc20c428645d173e075da670071640203e7c90283e8264a4549173361090b565b5b50565b7fac77a3332b3dc20c428645d173e075da670071640203e7c90283e8264a45491781565b610b8e8261082a565b610b9781610cbf565b610ba18383610ddf565b505050565b6000801b610bb381610cbf565b81600260006101000a81548173ffffffffffffffffffffffffffffffffffffffff021916908373ffffffffffffffffffffffffffffffffffffffff1602179055505050565b610c006111ae565b6000600560008473ffffffffffffffffffffffffffffffffffffffff1673ffffffffffffffffffffffffffffffffffffffff168152602001908152602001600020549050610c4d81610679565b915050919050565b60007f01ffc9a7000000000000000000000000000000000000000000000000000000007bffffffffffffffffffffffffffffffffffffffffffffffffffffffff1916827bffffffffffffffffffffffffffffffffffffffffffffffffffffffff1916149050919050565b610cd081610ccb610dd7565b610ec0565b50565b6001816000016000828254019250508190555050565b600081600001549050919050565b610d018282610a15565b610dd357600160008084815260200190815260200160002060000160008373ffffffffffffffffffffffffffffffffffffffff1673ffffffffffffffffffffffffffffffffffffffff16815260200190815260200160002060006101000a81548160ff021916908315150217905550610d78610dd7565b73ffffffffffffffffffffffffffffffffffffffff168173ffffffffffffffffffffffffffffffffffffffff16837f2f8788117e7eff1d82e926ec794901d17c78024a50270940304540a733656f0d60405160405180910390a45b5050565b600033905090565b610de98282610a15565b15610ebc57600080600084815260200190815260200160002060000160008373ffffffffffffffffffffffffffffffffffffffff1673ffffffffffffffffffffffffffffffffffffffff16815260200190815260200160002060006101000a81548160ff021916908315150217905550610e61610dd7565b73ffffffffffffffffffffffffffffffffffffffff168173ffffffffffffffffffffffffffffffffffffffff16837ff6391f5c32d9c69d2a47ea670b442974b53935d1edc7fd64eb21e047a839171b60405160405180910390a45b5050565b610eca8282610a15565b610f4157610ed781610f45565b610ee58360001c6020610f72565b604051602001610ef6929190611e0e565b6040516020818303038152906040526040517f08c379a0000000000000000000000000000000000000000000000000000000008152600401610f389190611e48565b60405180910390fd5b5050565b6060610f6b8273ffffffffffffffffffffffffffffffffffffffff16601460ff16610f72565b9050919050565b606060006002836002610f859190611e99565b610f8f9190611edb565b67ffffffffffffffff811115610fa857610fa7611361565b5b6040519080825280601f01601f191660200182016040528015610fda5781602001600182028036833780820191505090505b5090507f30000000000000000000000000000000000000000000000000000000000000008160008151811061101257611011611f0f565b5b60200101907effffffffffffffffffffffffffffffffffffffffffffffffffffffffffffff1916908160001a9053507f78000000000000000000000000000000000000000000000000000000000000008160018151811061107657611075611f0f565b5b60200101907effffffffffffffffffffffffffffffffffffffffffffffffffffffffffffff1916908160001a905350600060018460026110b69190611e99565b6110c09190611edb565b90505b6001811115611160577f3031323334353637383961626364656600000000000000000000000000000000600f86166010811061110257611101611f0f565b5b1a60f81b82828151811061111957611118611f0f565b5b60200101907effffffffffffffffffffffffffffffffffffffffffffffffffffffffffffff1916908160001a905350600485901c94508061115990611f3e565b90506110c3565b50600084146111a4576040517f08c379a000000000000000000000000000000000000000000000000000000000815260040161119b90611fb3565b60405180910390fd5b8091505092915050565b6040518060800160405280600081526020016060815260200160608152602001600073ffffffffffffffffffffffffffffffffffffffff1681525090565b6000604051905090565b600080fd5b600080fd5b60007fffffffff0000000000000000000000000000000000000000000000000000000082169050919050565b61123581611200565b811461124057600080fd5b50565b6000813590506112528161122c565b92915050565b60006020828403121561126e5761126d6111f6565b5b600061127c84828501611243565b91505092915050565b60008115159050919050565b61129a81611285565b82525050565b60006020820190506112b56000830184611291565b92915050565b600073ffffffffffffffffffffffffffffffffffffffff82169050919050565b60006112e6826112bb565b9050919050565b6112f6816112db565b811461130157600080fd5b50565b600081359050611313816112ed565b92915050565b60006020828403121561132f5761132e6111f6565b5b600061133d84828501611304565b91505092915050565b600080fd5b600080fd5b6000601f19601f8301169050919050565b7f4e487b7100000000000000000000000000000000000000000000000000000000600052604160045260246000fd5b61139982611350565b810181811067ffffffffffffffff821117156113b8576113b7611361565b5b80604052505050565b60006113cb6111ec565b90506113d78282611390565b919050565b600067ffffffffffffffff8211156113f7576113f6611361565b5b61140082611350565b9050602081019050919050565b82818337600083830152505050565b600061142f61142a846113dc565b6113c1565b90508281526020810184848401111561144b5761144a61134b565b5b61145684828561140d565b509392505050565b600082601f83011261147357611472611346565b5b813561148384826020860161141c565b91505092915050565b61149581611285565b81146114a057600080fd5b50565b6000813590506114b28161148c565b92915050565b6000806000606084860312156114d1576114d06111f6565b5b600084013567ffffffffffffffff8111156114ef576114ee6111fb565b5b6114fb8682870161145e565b935050602084013567ffffffffffffffff81111561151c5761151b6111fb565b5b6115288682870161145e565b9250506040611539868287016114a3565b9150509250925092565b6000819050919050565b61155681611543565b811461156157600080fd5b50565b6000813590506115738161154d565b92915050565b60006020828403121561158f5761158e6111f6565b5b600061159d84828501611564565b91505092915050565b6115af81611543565b82525050565b600081519050919050565b600082825260208201905092915050565b60005b838110156115ef5780820151818401526020810190506115d4565b60008484015250505050565b6000611606826115b5565b61161081856115c0565b93506116208185602086016115d1565b61162981611350565b840191505092915050565b61163d816112db565b82525050565b600060808301600083015161165b60008601826115a6565b506020830151848203602086015261167382826115fb565b9150506040830151848203604086015261168d82826115fb565b91505060608301516116a26060860182611634565b508091505092915050565b600060208201905081810360008301526116c78184611643565b905092915050565b6000819050919050565b6116e2816116cf565b81146116ed57600080fd5b50565b6000813590506116ff816116d9565b92915050565b60006020828403121561171b5761171a6111f6565b5b6000611729848285016116f0565b91505092915050565b61173b816116cf565b82525050565b60006020820190506117566000830184611732565b92915050565b600080600060608486031215611775576117746111f6565b5b600061178386828701611564565b935050602084013567ffffffffffffffff8111156117a4576117a36111fb565b5b6117b08682870161145e565b925050604084013567ffffffffffffffff8111156117d1576117d06111fb565b5b6117dd8682870161145e565b9150509250925092565b600080604083850312156117fe576117fd6111f6565b5b600061180c858286016116f0565b925050602061181d85828601611304565b9150509250929050565b60006020828403121561183d5761183c6111f6565b5b600061184b848285016114a3565b91505092915050565b600082825260208201905092915050565b7f5573657220616c72656164792072656769737465726564000000000000000000600082015250565b600061189b601783611854565b91506118a682611865565b602082019050919050565b600060208201905081810360008301526118ca8161188e565b9050919050565b7f4e487b7100000000000000000000000000000000000000000000000000000000600052602260045260246000fd5b6000600282049050600182168061191857607f821691505b60208210810361192b5761192a6118d1565b5b50919050565b60008190508160005260206000209050919050565b60006020601f8301049050919050565b600082821b905092915050565b6000600883026119937fffffffffffffffffffffffffffffffffffffffffffffffffffffffffffffffff82611956565b61199d8683611956565b95508019841693508086168417925050509392505050565b6000819050919050565b60006119da6119d56119d084611543565b6119b5565b611543565b9050919050565b6000819050919050565b6119f4836119bf565b611a08611a00826119e1565b848454611963565b825550505050565b600090565b611a1d611a10565b611a288184846119eb565b505050565b5b81811015611a4c57611a41600082611a15565b600181019050611a2e565b5050565b601f821115611a9157611a6281611931565b611a6b84611946565b81016020851015611a7a578190505b611a8e611a8685611946565b830182611a2d565b50505b505050565b600082821c905092915050565b6000611ab460001984600802611a96565b1980831691505092915050565b6000611acd8383611aa3565b9150826002028217905092915050565b611ae6826115b5565b67ffffffffffffffff811115611aff57611afe611361565b5b611b098254611900565b611b14828285611a50565b600060209050601f831160018114611b475760008415611b35578287015190505b611b3f8582611ac1565b865550611ba7565b601f198416611b5586611931565b60005b82811015611b7d57848901518255600182019150602085019450602081019050611b58565b86831015611b9a5784890151611b96601f891682611aa3565b8355505b6001600288020188555050505b505050505050565b6000611bba826115b5565b611bc48185611854565b9350611bd48185602086016115d1565b611bdd81611350565b840191505092915050565b611bf1816112db565b82525050565b60006060820190508181036000830152611c118186611baf565b90508181036020830152611c258185611baf565b9050611c346040830184611be8565b949350505050565b7f55736572206e6f7420666f756e64000000000000000000000000000000000000600082015250565b6000611c72600e83611854565b9150611c7d82611c3c565b602082019050919050565b60006020820190508181036000830152611ca181611c65565b9050919050565b7f416363657373436f6e74726f6c3a2063616e206f6e6c792072656e6f756e636560008201527f20726f6c657320666f722073656c660000000000000000000000000000000000602082015250565b6000611d04602f83611854565b9150611d0f82611ca8565b604082019050919050565b60006020820190508181036000830152611d3381611cf7565b9050919050565b600081905092915050565b7f416363657373436f6e74726f6c3a206163636f756e7420000000000000000000600082015250565b6000611d7b601783611d3a565b9150611d8682611d45565b601782019050919050565b6000611d9c826115b5565b611da68185611d3a565b9350611db68185602086016115d1565b80840191505092915050565b7f206973206d697373696e6720726f6c6520000000000000000000000000000000600082015250565b6000611df8601183611d3a565b9150611e0382611dc2565b601182019050919050565b6000611e1982611d6e565b9150611e258285611d91565b9150611e3082611deb565b9150611e3c8284611d91565b91508190509392505050565b60006020820190508181036000830152611e628184611baf565b905092915050565b7f4e487b7100000000000000000000000000000000000000000000000000000000600052601160045260246000fd5b6000611ea482611543565b9150611eaf83611543565b9250828202611ebd81611543565b91508282048414831517611ed457611ed3611e6a565b5b5092915050565b6000611ee682611543565b9150611ef183611543565b9250828201905080821115611f0957611f08611e6a565b5b92915050565b7f4e487b7100000000000000000000000000000000000000000000000000000000600052603260045260246000fd5b6000611f4982611543565b915060008203611f5c57611f5b611e6a565b5b600182039050919050565b7f537472696e67733a20686578206c656e67746820696e73756666696369656e74600082015250565b6000611f9d602083611854565b9150611fa882611f67565b602082019050919050565b60006020820190508181036000830152611fcc81611f90565b905091905056fea264697066735822122040693770cdb2710d3a799b87227254d4fb5aaeef518d3c1caf931db256fbc3c164736f6c63430008130033",
  "immutableReferences": {},
  "source": "// SPDX-License-Identifier: UNLICENSED\npragma solidity ^0.8.19;\n\n// This import is for restrict access to certain functions or actions with smart contract based on roles\nimport \"@openzeppelin/contracts/access/AccessControl.sol\";\n// This import is for manage unique identifiers for events and tickets\nimport \"@openzeppelin/contracts/utils/Counters.sol\";\n\n// UserAccount smart contract that manages account creation, authentication, and user profile management\ncontract UserAccount is AccessControl {\n    using Counters for Counters.Counter;\n\n    // Counter for user IDs\n    Counters.Counter private _userIds;\n\n    // Define roles for event organizers and ticket users\n    bytes32 public constant EVENT_ORGANIZER_ROLE =\n        keccak256(\"EVENT_ORGANIZER_ROLE\");\n    bytes32 public constant TICKET_USER_ROLE = keccak256(\"TICKET_USER_ROLE\");\n\n    // Addresses of the EventManager and TicketNFT contracts\n    address private _eventManagerAddress;\n    address private _ticketNFTAddress;\n\n    // UserProfile: store user information\n    struct UserProfile {\n        uint256 id;\n        string name;\n        string email;\n        address userAddress;\n    }\n\n    // Mapping to store user profiles by user ID\n    mapping(uint256 => UserProfile) private _userProfiles;\n    // Mapping to store user IDs by Ethereum address\n    mapping(address => uint256) private _addressToUserId;\n\n    // Event emitted when a new user is registered\n    event NewUser(\n        uint256 indexed userId,\n        string name,\n        string email,\n        address userAddress\n    );\n\n    // Constructor to set up the admin role\n    constructor() {\n        _setupRole(DEFAULT_ADMIN_ROLE, msg.sender);\n    }\n\n    // Function to set the address of the EventManager contract\n    function setEventManagerAddress(\n        address eventManagerAddress\n    ) external onlyRole(DEFAULT_ADMIN_ROLE) {\n        _eventManagerAddress = eventManagerAddress;\n    }\n\n    // Function to set the address of the TicketNFT contract\n    function setTicketNFTAddress(\n        address ticketNFTAddress\n    ) external onlyRole(DEFAULT_ADMIN_ROLE) {\n        _ticketNFTAddress = ticketNFTAddress;\n    }\n\n    // Function to register a new user\n    function registerUser(\n        string memory name,\n        string memory email,\n        bool organizerRole\n    ) public {\n        // Check if the user is already registered\n        require(_addressToUserId[msg.sender] == 0, \"User already registered\");\n\n        // Increment the user ID counter\n        _userIds.increment();\n        uint256 newUserId = _userIds.current();\n\n        // Create a new UserProfile and store it in the mapping\n        UserProfile storage newUserProfile = _userProfiles[newUserId];\n        newUserProfile.id = newUserId;\n        newUserProfile.name = name;\n        newUserProfile.email = email;\n        newUserProfile.userAddress = msg.sender;\n\n        // Store the user ID by Ethereum address\n        _addressToUserId[msg.sender] = newUserId;\n\n        // Grant the user the appropriate role\n        if (organizerRole) {\n            grantRole(EVENT_ORGANIZER_ROLE, msg.sender);\n        } else {\n            grantRole(TICKET_USER_ROLE, msg.sender);\n        }\n\n        // Emit the NewUser event\n        emit NewUser(newUserId, name, email, msg.sender);\n    }\n\n    // Function to get user profile by user ID\n    function getUserProfile(\n        uint256 userId\n    ) public view returns (UserProfile memory) {\n        return _userProfiles[userId];\n    }\n\n    // Function to get a user profile by Ethereum address\n    function getUserProfileByAddress(\n        address userAddress\n    ) public view returns (UserProfile memory) {\n        uint256 userId = _addressToUserId[userAddress];\n        return getUserProfile(userId);\n    }\n\n    // Function to check if an Ethereum address has the event organizer role\n    function isEventOrganizer(address userAddress) public view returns (bool) {\n        return hasRole(EVENT_ORGANIZER_ROLE, userAddress);\n    }\n\n    // Function to check if an Ethereum address has the ticket user role\n    function isTicketUser(address userAddress) public view returns (bool) {\n        return hasRole(TICKET_USER_ROLE, userAddress);\n    }\n\n    // Function to update a user's profile information\n    function updateUserProfile(\n        uint256 userId,\n        string memory name,\n        string memory email\n    ) public {\n        // Check if the user exists\n        require(_addressToUserId[msg.sender] == userId, \"User not found\");\n        UserProfile storage user = _userProfiles[userId];\n\n        // Update the user's name and email\n        user.name = name;\n        user.email = email;\n    }\n\n    // Function to switch a user's role\n    function switchUserRole(bool organizerRole) public {\n        if (organizerRole) {\n            revokeRole(TICKET_USER_ROLE, msg.sender);\n            grantRole(EVENT_ORGANIZER_ROLE, msg.sender);\n        } else {\n            revokeRole(EVENT_ORGANIZER_ROLE, msg.sender);\n            grantRole(TICKET_USER_ROLE, msg.sender);\n        }\n    }\n}\n",
  "sourcePath": "/Volumes/STUDY/MDX/Undergraduate Individual Project/NFT-Tickets-SmartContracts/contracts/UserAccount.sol",
  "compiler": {
    "name": "solc",
    "version": "0.8.19+commit.7dd6d404.Emscripten.clang"
  },
  "schemaVersion": "3.4.13",
  "updatedAt": "2023-04-28T17:34:31.887Z",
  "networkType": "ethereum",
  "devdoc": {
    "events": {
      "RoleAdminChanged(bytes32,bytes32,bytes32)": {
        "details": "Emitted when `newAdminRole` is set as ``role``'s admin role, replacing `previousAdminRole` `DEFAULT_ADMIN_ROLE` is the starting admin for all roles, despite {RoleAdminChanged} not being emitted signaling this. _Available since v3.1._"
      },
      "RoleGranted(bytes32,address,address)": {
        "details": "Emitted when `account` is granted `role`. `sender` is the account that originated the contract call, an admin role bearer except when using {AccessControl-_setupRole}."
      },
      "RoleRevoked(bytes32,address,address)": {
        "details": "Emitted when `account` is revoked `role`. `sender` is the account that originated the contract call:   - if using `revokeRole`, it is the admin role bearer   - if using `renounceRole`, it is the role bearer (i.e. `account`)"
      }
    },
    "kind": "dev",
    "methods": {
      "getRoleAdmin(bytes32)": {
        "details": "Returns the admin role that controls `role`. See {grantRole} and {revokeRole}. To change a role's admin, use {_setRoleAdmin}."
      },
      "grantRole(bytes32,address)": {
        "details": "Grants `role` to `account`. If `account` had not been already granted `role`, emits a {RoleGranted} event. Requirements: - the caller must have ``role``'s admin role. May emit a {RoleGranted} event."
      },
      "hasRole(bytes32,address)": {
        "details": "Returns `true` if `account` has been granted `role`."
      },
      "renounceRole(bytes32,address)": {
        "details": "Revokes `role` from the calling account. Roles are often managed via {grantRole} and {revokeRole}: this function's purpose is to provide a mechanism for accounts to lose their privileges if they are compromised (such as when a trusted device is misplaced). If the calling account had been revoked `role`, emits a {RoleRevoked} event. Requirements: - the caller must be `account`. May emit a {RoleRevoked} event."
      },
      "revokeRole(bytes32,address)": {
        "details": "Revokes `role` from `account`. If `account` had been granted `role`, emits a {RoleRevoked} event. Requirements: - the caller must have ``role``'s admin role. May emit a {RoleRevoked} event."
      },
      "supportsInterface(bytes4)": {
        "details": "See {IERC165-supportsInterface}."
      }
    },
    "version": 1
  },
  "userdoc": {
    "kind": "user",
    "methods": {},
    "version": 1
  }
}